{
  "_format": "hh-sol-artifact-1",
  "contractName": "LilBruvsNFT",
  "sourceName": "contracts/LilBruvsNFT.sol",
  "abi": [
    {
      "inputs": [],
      "stateMutability": "nonpayable",
      "type": "constructor"
    },
    {
      "anonymous": false,
      "inputs": [
        {
          "indexed": true,
          "internalType": "address",
          "name": "owner",
          "type": "address"
        },
        {
          "indexed": true,
          "internalType": "address",
          "name": "approved",
          "type": "address"
        },
        {
          "indexed": true,
          "internalType": "uint256",
          "name": "tokenId",
          "type": "uint256"
        }
      ],
      "name": "Approval",
      "type": "event"
    },
    {
      "anonymous": false,
      "inputs": [
        {
          "indexed": true,
          "internalType": "address",
          "name": "owner",
          "type": "address"
        },
        {
          "indexed": true,
          "internalType": "address",
          "name": "operator",
          "type": "address"
        },
        {
          "indexed": false,
          "internalType": "bool",
          "name": "approved",
          "type": "bool"
        }
      ],
      "name": "ApprovalForAll",
      "type": "event"
    },
    {
      "anonymous": false,
      "inputs": [
        {
          "indexed": true,
          "internalType": "address",
          "name": "previousOwner",
          "type": "address"
        },
        {
          "indexed": true,
          "internalType": "address",
          "name": "newOwner",
          "type": "address"
        }
      ],
      "name": "OwnershipTransferred",
      "type": "event"
    },
    {
      "anonymous": false,
      "inputs": [
        {
          "indexed": true,
          "internalType": "address",
          "name": "from",
          "type": "address"
        },
        {
          "indexed": true,
          "internalType": "address",
          "name": "to",
          "type": "address"
        },
        {
          "indexed": true,
          "internalType": "uint256",
          "name": "tokenId",
          "type": "uint256"
        }
      ],
      "name": "Transfer",
      "type": "event"
    },
    {
      "inputs": [
        {
          "internalType": "address",
          "name": "to",
          "type": "address"
        },
        {
          "internalType": "uint256",
          "name": "tokenId",
          "type": "uint256"
        }
      ],
      "name": "approve",
      "outputs": [],
      "stateMutability": "nonpayable",
      "type": "function"
    },
    {
      "inputs": [
        {
          "internalType": "address",
          "name": "owner",
          "type": "address"
        }
      ],
      "name": "balanceOf",
      "outputs": [
        {
          "internalType": "uint256",
          "name": "",
          "type": "uint256"
        }
      ],
      "stateMutability": "view",
      "type": "function"
    },
    {
      "inputs": [],
      "name": "baseURI",
      "outputs": [
        {
          "internalType": "string",
          "name": "",
          "type": "string"
        }
      ],
      "stateMutability": "view",
      "type": "function"
    },
    {
      "inputs": [
        {
          "internalType": "address",
          "name": "",
          "type": "address"
        }
      ],
      "name": "currentDrop",
      "outputs": [
        {
          "internalType": "uint256",
          "name": "",
          "type": "uint256"
        }
      ],
      "stateMutability": "view",
      "type": "function"
    },
    {
      "inputs": [
        {
          "internalType": "address",
          "name": "",
          "type": "address"
        }
      ],
      "name": "currentMinted",
      "outputs": [
        {
          "internalType": "uint256",
          "name": "",
          "type": "uint256"
        }
      ],
      "stateMutability": "view",
      "type": "function"
    },
    {
      "inputs": [],
      "name": "distributeTreasure",
      "outputs": [],
      "stateMutability": "nonpayable",
      "type": "function"
    },
    {
      "inputs": [],
      "name": "dropNumber",
      "outputs": [
        {
          "internalType": "uint256",
          "name": "",
          "type": "uint256"
        }
      ],
      "stateMutability": "view",
      "type": "function"
    },
    {
      "inputs": [
        {
          "internalType": "uint256",
          "name": "tokenId",
          "type": "uint256"
        }
      ],
      "name": "getApproved",
      "outputs": [
        {
          "internalType": "address",
          "name": "",
          "type": "address"
        }
      ],
      "stateMutability": "view",
      "type": "function"
    },
    {
      "inputs": [
        {
          "internalType": "address",
          "name": "owner",
          "type": "address"
        },
        {
          "internalType": "address",
          "name": "operator",
          "type": "address"
        }
      ],
      "name": "isApprovedForAll",
      "outputs": [
        {
          "internalType": "bool",
          "name": "",
          "type": "bool"
        }
      ],
      "stateMutability": "view",
      "type": "function"
    },
    {
      "inputs": [
        {
          "internalType": "address",
          "name": "",
          "type": "address"
        }
      ],
      "name": "isClaimed",
      "outputs": [
        {
          "internalType": "bool",
          "name": "",
          "type": "bool"
        }
      ],
      "stateMutability": "view",
      "type": "function"
    },
    {
      "inputs": [],
      "name": "isPaused",
      "outputs": [
        {
          "internalType": "bool",
          "name": "",
          "type": "bool"
        }
      ],
      "stateMutability": "view",
      "type": "function"
    },
    {
      "inputs": [],
      "name": "maxMintPerDrop",
      "outputs": [
        {
          "internalType": "uint256",
          "name": "",
          "type": "uint256"
        }
      ],
      "stateMutability": "view",
      "type": "function"
    },
    {
      "inputs": [],
      "name": "mintFrom",
      "outputs": [
        {
          "internalType": "uint256",
          "name": "",
          "type": "uint256"
        }
      ],
      "stateMutability": "view",
      "type": "function"
    },
    {
      "inputs": [],
      "name": "mintTo",
      "outputs": [
        {
          "internalType": "uint256",
          "name": "",
          "type": "uint256"
        }
      ],
      "stateMutability": "view",
      "type": "function"
    },
    {
      "inputs": [],
      "name": "name",
      "outputs": [
        {
          "internalType": "string",
          "name": "",
          "type": "string"
        }
      ],
      "stateMutability": "view",
      "type": "function"
    },
    {
      "inputs": [],
      "name": "owner",
      "outputs": [
        {
          "internalType": "address",
          "name": "",
          "type": "address"
        }
      ],
      "stateMutability": "view",
      "type": "function"
    },
    {
      "inputs": [
        {
          "internalType": "uint256",
          "name": "tokenId",
          "type": "uint256"
        }
      ],
      "name": "ownerOf",
      "outputs": [
        {
          "internalType": "address",
          "name": "",
          "type": "address"
        }
      ],
      "stateMutability": "view",
      "type": "function"
    },
    {
      "inputs": [
        {
          "internalType": "uint256",
          "name": "numberOfTokens",
          "type": "uint256"
        }
      ],
      "name": "publicMint",
      "outputs": [],
      "stateMutability": "payable",
      "type": "function"
    },
    {
      "inputs": [],
      "name": "publicMintId",
      "outputs": [
        {
          "internalType": "uint256",
          "name": "",
          "type": "uint256"
        }
      ],
      "stateMutability": "view",
      "type": "function"
    },
    {
      "inputs": [],
      "name": "publicMintPrice",
      "outputs": [
        {
          "internalType": "uint256",
          "name": "",
          "type": "uint256"
        }
      ],
      "stateMutability": "view",
      "type": "function"
    },
    {
      "inputs": [],
      "name": "renounceOwnership",
      "outputs": [],
      "stateMutability": "nonpayable",
      "type": "function"
    },
    {
      "inputs": [
        {
          "internalType": "address",
          "name": "from",
          "type": "address"
        },
        {
          "internalType": "address",
          "name": "to",
          "type": "address"
        },
        {
          "internalType": "uint256",
          "name": "tokenId",
          "type": "uint256"
        }
      ],
      "name": "safeTransferFrom",
      "outputs": [],
      "stateMutability": "nonpayable",
      "type": "function"
    },
    {
      "inputs": [
        {
          "internalType": "address",
          "name": "from",
          "type": "address"
        },
        {
          "internalType": "address",
          "name": "to",
          "type": "address"
        },
        {
          "internalType": "uint256",
          "name": "tokenId",
          "type": "uint256"
        },
        {
          "internalType": "bytes",
          "name": "_data",
          "type": "bytes"
        }
      ],
      "name": "safeTransferFrom",
      "outputs": [],
      "stateMutability": "nonpayable",
      "type": "function"
    },
    {
      "inputs": [
        {
          "internalType": "address",
          "name": "operator",
          "type": "address"
        },
        {
          "internalType": "bool",
          "name": "approved",
          "type": "bool"
        }
      ],
      "name": "setApprovalForAll",
      "outputs": [],
      "stateMutability": "nonpayable",
      "type": "function"
    },
    {
      "inputs": [
        {
          "internalType": "string",
          "name": "_baseURI",
          "type": "string"
        }
      ],
      "name": "setBaseURI",
      "outputs": [],
      "stateMutability": "nonpayable",
      "type": "function"
    },
    {
      "inputs": [
        {
          "internalType": "uint256",
          "name": "_dropNumber",
          "type": "uint256"
        }
      ],
      "name": "setDrop",
      "outputs": [],
      "stateMutability": "nonpayable",
      "type": "function"
    },
    {
      "inputs": [
        {
          "internalType": "uint256",
          "name": "_from",
          "type": "uint256"
        },
        {
          "internalType": "uint256",
          "name": "_to",
          "type": "uint256"
        }
      ],
      "name": "setMintRange",
      "outputs": [],
      "stateMutability": "nonpayable",
      "type": "function"
    },
    {
      "inputs": [
        {
          "internalType": "bool",
          "name": "_paused",
          "type": "bool"
        }
      ],
      "name": "setPaused",
      "outputs": [],
      "stateMutability": "nonpayable",
      "type": "function"
    },
    {
      "inputs": [
        {
          "internalType": "uint256",
          "name": "_price",
          "type": "uint256"
        }
      ],
      "name": "setPublicMintPrice",
      "outputs": [],
      "stateMutability": "nonpayable",
      "type": "function"
    },
    {
      "inputs": [
        {
          "internalType": "bytes32",
          "name": "merkleRoot",
          "type": "bytes32"
        }
      ],
      "name": "setWhiteListMerkleRoot",
      "outputs": [],
      "stateMutability": "nonpayable",
      "type": "function"
    },
    {
      "inputs": [
        {
          "internalType": "uint256",
          "name": "_price",
          "type": "uint256"
        }
      ],
      "name": "setWhiteListMintPrice",
      "outputs": [],
      "stateMutability": "nonpayable",
      "type": "function"
    },
    {
      "inputs": [
        {
          "internalType": "uint256",
          "name": "_wlSize",
          "type": "uint256"
        }
      ],
      "name": "setWhiteListSize",
      "outputs": [],
      "stateMutability": "nonpayable",
      "type": "function"
    },
    {
      "inputs": [
        {
          "internalType": "bytes4",
          "name": "interfaceId",
          "type": "bytes4"
        }
      ],
      "name": "supportsInterface",
      "outputs": [
        {
          "internalType": "bool",
          "name": "",
          "type": "bool"
        }
      ],
      "stateMutability": "view",
      "type": "function"
    },
    {
      "inputs": [],
      "name": "symbol",
      "outputs": [
        {
          "internalType": "string",
          "name": "",
          "type": "string"
        }
      ],
      "stateMutability": "view",
      "type": "function"
    },
    {
      "inputs": [
        {
          "internalType": "uint256",
          "name": "tokenId",
          "type": "uint256"
        }
      ],
      "name": "tokenURI",
      "outputs": [
        {
          "internalType": "string",
          "name": "",
          "type": "string"
        }
      ],
      "stateMutability": "view",
      "type": "function"
    },
    {
      "inputs": [],
      "name": "totalMinted",
      "outputs": [
        {
          "internalType": "uint256",
          "name": "",
          "type": "uint256"
        }
      ],
      "stateMutability": "view",
      "type": "function"
    },
    {
      "inputs": [
        {
          "internalType": "address",
          "name": "from",
          "type": "address"
        },
        {
          "internalType": "address",
          "name": "to",
          "type": "address"
        },
        {
          "internalType": "uint256",
          "name": "tokenId",
          "type": "uint256"
        }
      ],
      "name": "transferFrom",
      "outputs": [],
      "stateMutability": "nonpayable",
      "type": "function"
    },
    {
      "inputs": [
        {
          "internalType": "address",
          "name": "newOwner",
          "type": "address"
        }
      ],
      "name": "transferOwnership",
      "outputs": [],
      "stateMutability": "nonpayable",
      "type": "function"
    },
    {
      "inputs": [],
      "name": "whiteListMerkleRoot",
      "outputs": [
        {
          "internalType": "bytes32",
          "name": "",
          "type": "bytes32"
        }
      ],
      "stateMutability": "view",
      "type": "function"
    },
    {
      "inputs": [
        {
          "internalType": "bytes32[]",
          "name": "merkleProof",
          "type": "bytes32[]"
        }
      ],
      "name": "whiteListMint",
      "outputs": [],
      "stateMutability": "payable",
      "type": "function"
    },
    {
      "inputs": [],
      "name": "whiteListMintId",
      "outputs": [
        {
          "internalType": "uint256",
          "name": "",
          "type": "uint256"
        }
      ],
      "stateMutability": "view",
      "type": "function"
    },
    {
      "inputs": [],
      "name": "whiteListMintPrice",
      "outputs": [
        {
          "internalType": "uint256",
          "name": "",
          "type": "uint256"
        }
      ],
      "stateMutability": "view",
      "type": "function"
    },
    {
      "inputs": [],
      "name": "whiteListSize",
      "outputs": [
        {
          "internalType": "uint256",
          "name": "",
          "type": "uint256"
        }
      ],
      "stateMutability": "view",
      "type": "function"
    },
    {
      "inputs": [],
      "name": "withdraw",
      "outputs": [],
      "stateMutability": "nonpayable",
      "type": "function"
    },
    {
      "inputs": [
        {
          "internalType": "contract IERC20",
          "name": "token",
          "type": "address"
        }
      ],
      "name": "withdrawTokens",
      "outputs": [],
      "stateMutability": "nonpayable",
      "type": "function"
    }
  ],
  "bytecode": "0x60806040526001600a556001600b556000600c556000600d556000600e556000600f5561012c6010556003601155600a60125560006014556001601560006101000a81548160ff02191690831515021790555073194f207ac9c55dbdcea44d3ff65b5d427e5b7f62601960006101000a81548173ffffffffffffffffffffffffffffffffffffffff021916908373ffffffffffffffffffffffffffffffffffffffff16021790555073fbe11ede3c277594e86251650a98b26c776ea033601a60006101000a81548173ffffffffffffffffffffffffffffffffffffffff021916908373ffffffffffffffffffffffffffffffffffffffff16021790555073fe116480682f4f8702fa87d5146dbf2b5f0c6a9b601b60006101000a81548173ffffffffffffffffffffffffffffffffffffffff021916908373ffffffffffffffffffffffffffffffffffffffff16021790555073abaa41ecf5f6bd12cdfcac3751d8d06f8c16351f601c60006101000a81548173ffffffffffffffffffffffffffffffffffffffff021916908373ffffffffffffffffffffffffffffffffffffffff160217905550348015620001b357600080fd5b506040518060400160405280600b81526020017f4c696c42727576734e46540000000000000000000000000000000000000000008152506040518060400160405280600381526020017f4e4654000000000000000000000000000000000000000000000000000000000081525081600090805190602001906200023892919062000503565b5080600190805190602001906200025192919062000503565b5050506200027462000268620002b460201b60201c565b620002bc60201b60201c565b60016008819055506200029c604051806020016040528060008152506200038260201b60201c565b620002ae60016200042d60201b60201c565b6200069b565b600033905090565b6000600760009054906101000a900473ffffffffffffffffffffffffffffffffffffffff16905081600760006101000a81548173ffffffffffffffffffffffffffffffffffffffff021916908373ffffffffffffffffffffffffffffffffffffffff1602179055508173ffffffffffffffffffffffffffffffffffffffff168173ffffffffffffffffffffffffffffffffffffffff167f8be0079c531659141344cd1fd0a4f28419497f9722a3daafe3b4186f6b6457e060405160405180910390a35050565b62000392620002b460201b60201c565b73ffffffffffffffffffffffffffffffffffffffff16620003b8620004d960201b60201c565b73ffffffffffffffffffffffffffffffffffffffff161462000411576040517f08c379a00000000000000000000000000000000000000000000000000000000081526004016200040890620005da565b60405180910390fd5b80600990805190602001906200042992919062000503565b5050565b6200043d620002b460201b60201c565b73ffffffffffffffffffffffffffffffffffffffff1662000463620004d960201b60201c565b73ffffffffffffffffffffffffffffffffffffffff1614620004bc576040517f08c379a0000000000000000000000000000000000000000000000000000000008152600401620004b390620005da565b60405180910390fd5b80601560006101000a81548160ff02191690831515021790555050565b6000600760009054906101000a900473ffffffffffffffffffffffffffffffffffffffff16905090565b82805462000511906200060d565b90600052602060002090601f01602090048101928262000535576000855562000581565b82601f106200055057805160ff191683800117855562000581565b8280016001018555821562000581579182015b828111156200058057825182559160200191906001019062000563565b5b50905062000590919062000594565b5090565b5b80821115620005af57600081600090555060010162000595565b5090565b6000620005c2602083620005fc565b9150620005cf8262000672565b602082019050919050565b60006020820190508181036000830152620005f581620005b3565b9050919050565b600082825260208201905092915050565b600060028204905060018216806200062657607f821691505b602082108114156200063d576200063c62000643565b5b50919050565b7f4e487b7100000000000000000000000000000000000000000000000000000000600052602260045260246000fd5b7f4f776e61626c653a2063616c6c6572206973206e6f7420746865206f776e6572600082015250565b61535880620006ab6000396000f3fe6080604052600436106102725760003560e01c80636352211e1161014f57806397254e55116100c1578063bf97ef1e1161007a578063bf97ef1e1461090e578063c87b56dd14610939578063dc53fd9214610976578063e08e65ea146109a1578063e985e9c5146109ca578063f2fde38b14610a0757610272565b806397254e5514610833578063a0650dc01461084f578063a22cb46514610866578063a2309ff81461088f578063b187bd26146108ba578063b88d4fde146108e557610272565b80638b3ad5a8116101135780638b3ad5a81461070d5780638cc08025146107385780638da5cb5b146107755780638f9dad48146107a057806392123470146107dd57806395d89b411461080857610272565b80636352211e146106265780636c0360eb1461066357806370a082311461068e578063715018a6146106cb57806373f2f983146106e257610272565b8063358c0446116101e857806348e3bfd0116101ac57806348e3bfd01461051a57806349df728c146105575780634a35035a1461058057806355f804b3146105ab578063592851b9146105d45780635d82cf6e146105fd57610272565b8063358c04461461045b5780633ccfd60b146104865780633df5d3081461049d57806342842e0e146104c857806344b564bf146104f157610272565b80630fab61971161023a5780630fab61971461036e57806316c38b3c1461039957806323ad1dac146103c257806323b872dd146103eb5780632db115441461041457806334b6ab1a1461043057610272565b806301ffc9a71461027757806306fdde03146102b457806307ff4390146102df578063081812fc14610308578063095ea7b314610345575b600080fd5b34801561028357600080fd5b5061029e60048036038101906102999190613b43565b610a30565b6040516102ab91906142b0565b60405180910390f35b3480156102c057600080fd5b506102c9610b12565b6040516102d691906142e6565b60405180910390f35b3480156102eb57600080fd5b5061030660048036038101906103019190613bff565b610ba4565b005b34801561031457600080fd5b5061032f600480360381019061032a9190613bff565b610c2a565b60405161033c9190614220565b60405180910390f35b34801561035157600080fd5b5061036c60048036038101906103679190613a47565b610caf565b005b34801561037a57600080fd5b50610383610dc7565b6040516103909190614668565b60405180910390f35b3480156103a557600080fd5b506103c060048036038101906103bb9190613ac8565b610dcd565b005b3480156103ce57600080fd5b506103e960048036038101906103e49190613bff565b610e66565b005b3480156103f757600080fd5b50610412600480360381019061040d9190613941565b610eec565b005b61042e60048036038101906104299190613bff565b610f4c565b005b34801561043c57600080fd5b5061044561138e565b60405161045291906142cb565b60405180910390f35b34801561046757600080fd5b50610470611394565b60405161047d9190614668565b60405180910390f35b34801561049257600080fd5b5061049b61139a565b005b3480156104a957600080fd5b506104b2611465565b6040516104bf9190614668565b60405180910390f35b3480156104d457600080fd5b506104ef60048036038101906104ea9190613941565b61146b565b005b3480156104fd57600080fd5b5061051860048036038101906105139190613bff565b61148b565b005b34801561052657600080fd5b50610541600480360381019061053c91906138dc565b611511565b60405161054e9190614668565b60405180910390f35b34801561056357600080fd5b5061057e60048036038101906105799190613b95565b611529565b005b34801561058c57600080fd5b506105956116c4565b6040516105a29190614668565b60405180910390f35b3480156105b757600080fd5b506105d260048036038101906105cd9190613bbe565b6116ca565b005b3480156105e057600080fd5b506105fb60048036038101906105f69190613c51565b611760565b005b34801561060957600080fd5b50610624600480360381019061061f9190613bff565b6117ee565b005b34801561063257600080fd5b5061064d60048036038101906106489190613bff565b611874565b60405161065a9190614220565b60405180910390f35b34801561066f57600080fd5b50610678611926565b60405161068591906142e6565b60405180910390f35b34801561069a57600080fd5b506106b560048036038101906106b091906138dc565b6119b4565b6040516106c29190614668565b60405180910390f35b3480156106d757600080fd5b506106e0611a6c565b005b3480156106ee57600080fd5b506106f7611af4565b6040516107049190614668565b60405180910390f35b34801561071957600080fd5b50610722611afa565b60405161072f9190614668565b60405180910390f35b34801561074457600080fd5b5061075f600480360381019061075a91906138dc565b611b00565b60405161076c91906142b0565b60405180910390f35b34801561078157600080fd5b5061078a611b20565b6040516107979190614220565b60405180910390f35b3480156107ac57600080fd5b506107c760048036038101906107c291906138dc565b611b4a565b6040516107d49190614668565b60405180910390f35b3480156107e957600080fd5b506107f2611b62565b6040516107ff9190614668565b60405180910390f35b34801561081457600080fd5b5061081d611b68565b60405161082a91906142e6565b60405180910390f35b61084d60048036038101906108489190613a83565b611bfa565b005b34801561085b57600080fd5b50610864612291565b005b34801561087257600080fd5b5061088d60048036038101906108889190613a0b565b612544565b005b34801561089b57600080fd5b506108a461255a565b6040516108b19190614668565b60405180910390f35b3480156108c657600080fd5b506108cf612560565b6040516108dc91906142b0565b60405180910390f35b3480156108f157600080fd5b5061090c60048036038101906109079190613990565b612573565b005b34801561091a57600080fd5b506109236125d5565b6040516109309190614668565b60405180910390f35b34801561094557600080fd5b50610960600480360381019061095b9190613bff565b6125db565b60405161096d91906142e6565b60405180910390f35b34801561098257600080fd5b5061098b612657565b6040516109989190614668565b60405180910390f35b3480156109ad57600080fd5b506109c860048036038101906109c39190613b1a565b61265d565b005b3480156109d657600080fd5b506109f160048036038101906109ec9190613905565b6126e3565b6040516109fe91906142b0565b60405180910390f35b348015610a1357600080fd5b50610a2e6004803603810190610a2991906138dc565b612777565b005b60007f80ac58cd000000000000000000000000000000000000000000000000000000007bffffffffffffffffffffffffffffffffffffffffffffffffffffffff1916827bffffffffffffffffffffffffffffffffffffffffffffffffffffffff19161480610afb57507f5b5e139f000000000000000000000000000000000000000000000000000000007bffffffffffffffffffffffffffffffffffffffffffffffffffffffff1916827bffffffffffffffffffffffffffffffffffffffffffffffffffffffff1916145b80610b0b5750610b0a8261286f565b5b9050919050565b606060008054610b2190614949565b80601f0160208091040260200160405190810160405280929190818152602001828054610b4d90614949565b8015610b9a5780601f10610b6f57610100808354040283529160200191610b9a565b820191906000526020600020905b815481529060010190602001808311610b7d57829003601f168201915b5050505050905090565b610bac6128d9565b73ffffffffffffffffffffffffffffffffffffffff16610bca611b20565b73ffffffffffffffffffffffffffffffffffffffff1614610c20576040517f08c379a0000000000000000000000000000000000000000000000000000000008152600401610c1790614528565b60405180910390fd5b80600c8190555050565b6000610c35826128e1565b610c74576040517f08c379a0000000000000000000000000000000000000000000000000000000008152600401610c6b90614508565b60405180910390fd5b6004600083815260200190815260200160002060009054906101000a900473ffffffffffffffffffffffffffffffffffffffff169050919050565b6000610cba82611874565b90508073ffffffffffffffffffffffffffffffffffffffff168373ffffffffffffffffffffffffffffffffffffffff161415610d2b576040517f08c379a0000000000000000000000000000000000000000000000000000000008152600401610d2290614588565b60405180910390fd5b8073ffffffffffffffffffffffffffffffffffffffff16610d4a6128d9565b73ffffffffffffffffffffffffffffffffffffffff161480610d795750610d7881610d736128d9565b6126e3565b5b610db8576040517f08c379a0000000000000000000000000000000000000000000000000000000008152600401610daf90614408565b60405180910390fd5b610dc2838361294d565b505050565b600a5481565b610dd56128d9565b73ffffffffffffffffffffffffffffffffffffffff16610df3611b20565b73ffffffffffffffffffffffffffffffffffffffff1614610e49576040517f08c379a0000000000000000000000000000000000000000000000000000000008152600401610e4090614528565b60405180910390fd5b80601560006101000a81548160ff02191690831515021790555050565b610e6e6128d9565b73ffffffffffffffffffffffffffffffffffffffff16610e8c611b20565b73ffffffffffffffffffffffffffffffffffffffff1614610ee2576040517f08c379a0000000000000000000000000000000000000000000000000000000008152600401610ed990614528565b60405180910390fd5b80600e8190555050565b610efd610ef76128d9565b82612a06565b610f3c576040517f08c379a0000000000000000000000000000000000000000000000000000000008152600401610f33906145a8565b60405180910390fd5b610f47838383612ae4565b505050565b601560009054906101000a900460ff1615610f9c576040517f08c379a0000000000000000000000000000000000000000000000000000000008152600401610f9390614428565b60405180910390fd5b600d5481348183610fad91906147e9565b1115610fee576040517f08c379a0000000000000000000000000000000000000000000000000000000008152600401610fe590614448565b60405180910390fd5b82600e54601760003373ffffffffffffffffffffffffffffffffffffffff1673ffffffffffffffffffffffffffffffffffffffff16815260200190815260200160002054108061110a5750600e54601760003373ffffffffffffffffffffffffffffffffffffffff1673ffffffffffffffffffffffffffffffffffffffff168152602001908152602001600020541480156110d5575060115481601860003373ffffffffffffffffffffffffffffffffffffffff1673ffffffffffffffffffffffffffffffffffffffff168152602001908152602001600020546110d29190614762565b11155b8015611109575060105481600a54601254600f546110f39190614762565b6110fd9190614762565b6111079190614762565b105b5b611149576040517f08c379a000000000000000000000000000000000000000000000000000000000815260040161114090614608565b60405180910390fd5b6002600854141561118f576040517f08c379a000000000000000000000000000000000000000000000000000000000815260040161118690614628565b60405180910390fd5b600260088190555060005b8481101561137f576111c833600a54601254600f546111b99190614762565b6111c39190614762565b612d4b565b611212600a54601254600f546111de9190614762565b6111e89190614762565b61120d600a54601254600f546111fe9190614762565b6112089190614762565b612f25565b6130d2565b600a6000815480929190611225906149ac565b91905055506014600081548092919061123d906149ac565b9190505550600e54601760003373ffffffffffffffffffffffffffffffffffffffff1673ffffffffffffffffffffffffffffffffffffffff16815260200190815260200160002054101561131757600e54601760003373ffffffffffffffffffffffffffffffffffffffff1673ffffffffffffffffffffffffffffffffffffffff168152602001908152602001600020819055506000601860003373ffffffffffffffffffffffffffffffffffffffff1673ffffffffffffffffffffffffffffffffffffffff168152602001908152602001600020819055505b601860003373ffffffffffffffffffffffffffffffffffffffff1673ffffffffffffffffffffffffffffffffffffffff1681526020019081526020016000206000815480929190611367906149ac565b91905055508080611377906149ac565b91505061119a565b50600160088190555050505050565b60135481565b600f5481565b6113a26128d9565b73ffffffffffffffffffffffffffffffffffffffff166113c0611b20565b73ffffffffffffffffffffffffffffffffffffffff1614611416576040517f08c379a000000000000000000000000000000000000000000000000000000000815260040161140d90614528565b60405180910390fd5b60004790503373ffffffffffffffffffffffffffffffffffffffff166108fc829081150290604051600060405180830381858888f19350505050158015611461573d6000803e3d6000fd5b5050565b600b5481565b61148683838360405180602001604052806000815250612573565b505050565b6114936128d9565b73ffffffffffffffffffffffffffffffffffffffff166114b1611b20565b73ffffffffffffffffffffffffffffffffffffffff1614611507576040517f08c379a00000000000000000000000000000000000000000000000000000000081526004016114fe90614528565b60405180910390fd5b8060128190555050565b60176020528060005260406000206000915090505481565b6115316128d9565b73ffffffffffffffffffffffffffffffffffffffff1661154f611b20565b73ffffffffffffffffffffffffffffffffffffffff16146115a5576040517f08c379a000000000000000000000000000000000000000000000000000000000815260040161159c90614528565b60405180910390fd5b60008173ffffffffffffffffffffffffffffffffffffffff166370a08231306040518263ffffffff1660e01b81526004016115e09190614220565b60206040518083038186803b1580156115f857600080fd5b505afa15801561160c573d6000803e3d6000fd5b505050506040513d601f19601f820116820180604052508101906116309190613c28565b90508173ffffffffffffffffffffffffffffffffffffffff1663a9059cbb33836040518363ffffffff1660e01b815260040161166d929190614287565b602060405180830381600087803b15801561168757600080fd5b505af115801561169b573d6000803e3d6000fd5b505050506040513d601f19601f820116820180604052508101906116bf9190613af1565b505050565b600e5481565b6116d26128d9565b73ffffffffffffffffffffffffffffffffffffffff166116f0611b20565b73ffffffffffffffffffffffffffffffffffffffff1614611746576040517f08c379a000000000000000000000000000000000000000000000000000000000815260040161173d90614528565b60405180910390fd5b806009908051906020019061175c929190613662565b5050565b6117686128d9565b73ffffffffffffffffffffffffffffffffffffffff16611786611b20565b73ffffffffffffffffffffffffffffffffffffffff16146117dc576040517f08c379a00000000000000000000000000000000000000000000000000000000081526004016117d390614528565b60405180910390fd5b81600f81905550806010819055505050565b6117f66128d9565b73ffffffffffffffffffffffffffffffffffffffff16611814611b20565b73ffffffffffffffffffffffffffffffffffffffff161461186a576040517f08c379a000000000000000000000000000000000000000000000000000000000815260040161186190614528565b60405180910390fd5b80600d8190555050565b6000806002600084815260200190815260200160002060009054906101000a900473ffffffffffffffffffffffffffffffffffffffff169050600073ffffffffffffffffffffffffffffffffffffffff168173ffffffffffffffffffffffffffffffffffffffff16141561191d576040517f08c379a000000000000000000000000000000000000000000000000000000000815260040161191490614488565b60405180910390fd5b80915050919050565b6009805461193390614949565b80601f016020809104026020016040519081016040528092919081815260200182805461195f90614949565b80156119ac5780601f10611981576101008083540402835291602001916119ac565b820191906000526020600020905b81548152906001019060200180831161198f57829003601f168201915b505050505081565b60008073ffffffffffffffffffffffffffffffffffffffff168273ffffffffffffffffffffffffffffffffffffffff161415611a25576040517f08c379a0000000000000000000000000000000000000000000000000000000008152600401611a1c90614468565b60405180910390fd5b600360008373ffffffffffffffffffffffffffffffffffffffff1673ffffffffffffffffffffffffffffffffffffffff168152602001908152602001600020549050919050565b611a746128d9565b73ffffffffffffffffffffffffffffffffffffffff16611a92611b20565b73ffffffffffffffffffffffffffffffffffffffff1614611ae8576040517f08c379a0000000000000000000000000000000000000000000000000000000008152600401611adf90614528565b60405180910390fd5b611af26000613146565b565b60125481565b60115481565b60166020528060005260406000206000915054906101000a900460ff1681565b6000600760009054906101000a900473ffffffffffffffffffffffffffffffffffffffff16905090565b60186020528060005260406000206000915090505481565b60105481565b606060018054611b7790614949565b80601f0160208091040260200160405190810160405280929190818152602001828054611ba390614949565b8015611bf05780601f10611bc557610100808354040283529160200191611bf0565b820191906000526020600020905b815481529060010190602001808311611bd357829003601f168201915b5050505050905090565b601560009054906101000a900460ff1615611c4a576040517f08c379a0000000000000000000000000000000000000000000000000000000008152600401611c4190614428565b60405180910390fd5b8181601354611cc1838380806020026020016040519081016040528093929190818152602001838360200280828437600081840152601f19601f820116905080830192505050505050508233604051602001611ca691906141d6565b6040516020818303038152906040528051906020012061320c565b611d00576040517f08c379a0000000000000000000000000000000000000000000000000000000008152600401611cf790614548565b60405180910390fd5b600c546001348183611d1291906147e9565b1115611d53576040517f08c379a0000000000000000000000000000000000000000000000000000000008152600401611d4a90614448565b60405180910390fd5b600e54601760003373ffffffffffffffffffffffffffffffffffffffff1673ffffffffffffffffffffffffffffffffffffffff16815260200190815260200160002054148015611ded5750601660003373ffffffffffffffffffffffffffffffffffffffff1673ffffffffffffffffffffffffffffffffffffffff16815260200190815260200160002060009054906101000a900460ff16155b80611e385750600e54601760003373ffffffffffffffffffffffffffffffffffffffff1673ffffffffffffffffffffffffffffffffffffffff16815260200190815260200160002054105b611e77576040517f08c379a0000000000000000000000000000000000000000000000000000000008152600401611e6e90614568565b60405180910390fd5b600e54601760003373ffffffffffffffffffffffffffffffffffffffff1673ffffffffffffffffffffffffffffffffffffffff16815260200190815260200160002054148015611f075750601154601860003373ffffffffffffffffffffffffffffffffffffffff1673ffffffffffffffffffffffffffffffffffffffff16815260200190815260200160002054105b80611f525750600e54601760003373ffffffffffffffffffffffffffffffffffffffff1673ffffffffffffffffffffffffffffffffffffffff16815260200190815260200160002054105b611f91576040517f08c379a0000000000000000000000000000000000000000000000000000000008152600401611f88906143c8565b60405180910390fd5b601254600b5410611fd7576040517f08c379a0000000000000000000000000000000000000000000000000000000008152600401611fce906144c8565b60405180910390fd5b6002600854141561201d576040517f08c379a000000000000000000000000000000000000000000000000000000000815260040161201490614628565b60405180910390fd5b6002600881905550601254600f546120359190614762565b600b54600f546120459190614762565b10612085576040517f08c379a000000000000000000000000000000000000000000000000000000000815260040161207c906145c8565b60405180910390fd5b61209e33600b54600f546120999190614762565b612d4b565b6120ce600b54600f546120b19190614762565b6120c9600b54600f546120c49190614762565b612f25565b6130d2565b600b60008154809291906120e1906149ac565b9190505550601460008154809291906120f9906149ac565b91905055506001601660003373ffffffffffffffffffffffffffffffffffffffff1673ffffffffffffffffffffffffffffffffffffffff16815260200190815260200160002060006101000a81548160ff021916908315150217905550600e54601760003373ffffffffffffffffffffffffffffffffffffffff1673ffffffffffffffffffffffffffffffffffffffff16815260200190815260200160002054101561222b57600e54601760003373ffffffffffffffffffffffffffffffffffffffff1673ffffffffffffffffffffffffffffffffffffffff168152602001908152602001600020819055506000601860003373ffffffffffffffffffffffffffffffffffffffff1673ffffffffffffffffffffffffffffffffffffffff168152602001908152602001600020819055505b601860003373ffffffffffffffffffffffffffffffffffffffff1673ffffffffffffffffffffffffffffffffffffffff168152602001908152602001600020600081548092919061227b906149ac565b9190505550600160088190555050505050505050565b601960009054906101000a900473ffffffffffffffffffffffffffffffffffffffff1673ffffffffffffffffffffffffffffffffffffffff163373ffffffffffffffffffffffffffffffffffffffff16148061233a5750601a60009054906101000a900473ffffffffffffffffffffffffffffffffffffffff1673ffffffffffffffffffffffffffffffffffffffff163373ffffffffffffffffffffffffffffffffffffffff16145b806123925750601c60009054906101000a900473ffffffffffffffffffffffffffffffffffffffff1673ffffffffffffffffffffffffffffffffffffffff163373ffffffffffffffffffffffffffffffffffffffff16145b6123d1576040517f08c379a00000000000000000000000000000000000000000000000000000000081526004016123c890614648565b60405180910390fd5b60006002476123e091906147b8565b905060006004476123f191906147b8565b9050600060044761240291906147b8565b9050601b60009054906101000a900473ffffffffffffffffffffffffffffffffffffffff1673ffffffffffffffffffffffffffffffffffffffff166108fc849081150290604051600060405180830381858888f1935050505015801561246c573d6000803e3d6000fd5b50601960009054906101000a900473ffffffffffffffffffffffffffffffffffffffff1673ffffffffffffffffffffffffffffffffffffffff166108fc839081150290604051600060405180830381858888f193505050501580156124d5573d6000803e3d6000fd5b50601a60009054906101000a900473ffffffffffffffffffffffffffffffffffffffff1673ffffffffffffffffffffffffffffffffffffffff166108fc829081150290604051600060405180830381858888f1935050505015801561253e573d6000803e3d6000fd5b50505050565b61255661254f6128d9565b8383613223565b5050565b60145481565b601560009054906101000a900460ff1681565b61258461257e6128d9565b83612a06565b6125c3576040517f08c379a00000000000000000000000000000000000000000000000000000000081526004016125ba906145a8565b60405180910390fd5b6125cf84848484613390565b50505050565b600c5481565b60606125e6826128e1565b612625576040517f08c379a000000000000000000000000000000000000000000000000000000000815260040161261c906145e8565b60405180910390fd5b600961263083612f25565b6040516020016126419291906141f1565b6040516020818303038152906040529050919050565b600d5481565b6126656128d9565b73ffffffffffffffffffffffffffffffffffffffff16612683611b20565b73ffffffffffffffffffffffffffffffffffffffff16146126d9576040517f08c379a00000000000000000000000000000000000000000000000000000000081526004016126d090614528565b60405180910390fd5b8060138190555050565b6000600560008473ffffffffffffffffffffffffffffffffffffffff1673ffffffffffffffffffffffffffffffffffffffff16815260200190815260200160002060008373ffffffffffffffffffffffffffffffffffffffff1673ffffffffffffffffffffffffffffffffffffffff16815260200190815260200160002060009054906101000a900460ff16905092915050565b61277f6128d9565b73ffffffffffffffffffffffffffffffffffffffff1661279d611b20565b73ffffffffffffffffffffffffffffffffffffffff16146127f3576040517f08c379a00000000000000000000000000000000000000000000000000000000081526004016127ea90614528565b60405180910390fd5b600073ffffffffffffffffffffffffffffffffffffffff168173ffffffffffffffffffffffffffffffffffffffff161415612863576040517f08c379a000000000000000000000000000000000000000000000000000000000815260040161285a90614328565b60405180910390fd5b61286c81613146565b50565b60007f01ffc9a7000000000000000000000000000000000000000000000000000000007bffffffffffffffffffffffffffffffffffffffffffffffffffffffff1916827bffffffffffffffffffffffffffffffffffffffffffffffffffffffff1916149050919050565b600033905090565b60008073ffffffffffffffffffffffffffffffffffffffff166002600084815260200190815260200160002060009054906101000a900473ffffffffffffffffffffffffffffffffffffffff1673ffffffffffffffffffffffffffffffffffffffff1614159050919050565b816004600083815260200190815260200160002060006101000a81548173ffffffffffffffffffffffffffffffffffffffff021916908373ffffffffffffffffffffffffffffffffffffffff160217905550808273ffffffffffffffffffffffffffffffffffffffff166129c083611874565b73ffffffffffffffffffffffffffffffffffffffff167f8c5be1e5ebec7d5bd14f71427d1e84f3dd0314c0f7b2291e5b200ac8c7c3b92560405160405180910390a45050565b6000612a11826128e1565b612a50576040517f08c379a0000000000000000000000000000000000000000000000000000000008152600401612a47906143e8565b60405180910390fd5b6000612a5b83611874565b90508073ffffffffffffffffffffffffffffffffffffffff168473ffffffffffffffffffffffffffffffffffffffff161480612aca57508373ffffffffffffffffffffffffffffffffffffffff16612ab284610c2a565b73ffffffffffffffffffffffffffffffffffffffff16145b80612adb5750612ada81856126e3565b5b91505092915050565b8273ffffffffffffffffffffffffffffffffffffffff16612b0482611874565b73ffffffffffffffffffffffffffffffffffffffff1614612b5a576040517f08c379a0000000000000000000000000000000000000000000000000000000008152600401612b5190614348565b60405180910390fd5b600073ffffffffffffffffffffffffffffffffffffffff168273ffffffffffffffffffffffffffffffffffffffff161415612bca576040517f08c379a0000000000000000000000000000000000000000000000000000000008152600401612bc190614388565b60405180910390fd5b612bd58383836133ec565b612be060008261294d565b6001600360008573ffffffffffffffffffffffffffffffffffffffff1673ffffffffffffffffffffffffffffffffffffffff1681526020019081526020016000206000828254612c309190614843565b925050819055506001600360008473ffffffffffffffffffffffffffffffffffffffff1673ffffffffffffffffffffffffffffffffffffffff1681526020019081526020016000206000828254612c879190614762565b92505081905550816002600083815260200190815260200160002060006101000a81548173ffffffffffffffffffffffffffffffffffffffff021916908373ffffffffffffffffffffffffffffffffffffffff160217905550808273ffffffffffffffffffffffffffffffffffffffff168473ffffffffffffffffffffffffffffffffffffffff167fddf252ad1be2c89b69c2b068fc378daa952ba7f163c4a11628f55a4df523b3ef60405160405180910390a4612d468383836133f1565b505050565b600073ffffffffffffffffffffffffffffffffffffffff168273ffffffffffffffffffffffffffffffffffffffff161415612dbb576040517f08c379a0000000000000000000000000000000000000000000000000000000008152600401612db2906144e8565b60405180910390fd5b612dc4816128e1565b15612e04576040517f08c379a0000000000000000000000000000000000000000000000000000000008152600401612dfb90614368565b60405180910390fd5b612e10600083836133ec565b6001600360008473ffffffffffffffffffffffffffffffffffffffff1673ffffffffffffffffffffffffffffffffffffffff1681526020019081526020016000206000828254612e609190614762565b92505081905550816002600083815260200190815260200160002060006101000a81548173ffffffffffffffffffffffffffffffffffffffff021916908373ffffffffffffffffffffffffffffffffffffffff160217905550808273ffffffffffffffffffffffffffffffffffffffff16600073ffffffffffffffffffffffffffffffffffffffff167fddf252ad1be2c89b69c2b068fc378daa952ba7f163c4a11628f55a4df523b3ef60405160405180910390a4612f21600083836133f1565b5050565b60606000821415612f6d576040518060400160405280600181526020017f300000000000000000000000000000000000000000000000000000000000000081525090506130cd565b600082905060005b60008214612f9f578080612f88906149ac565b915050600a82612f9891906147b8565b9150612f75565b60008167ffffffffffffffff811115612fe1577f4e487b7100000000000000000000000000000000000000000000000000000000600052604160045260246000fd5b6040519080825280601f01601f1916602001820160405280156130135781602001600182028036833780820191505090505b5090505b600085146130c65760018261302c9190614843565b9150600a8561303b9190614a19565b60306130479190614762565b60f81b818381518110613083577f4e487b7100000000000000000000000000000000000000000000000000000000600052603260045260246000fd5b60200101907effffffffffffffffffffffffffffffffffffffffffffffffffffffffffffff1916908160001a905350600a856130bf91906147b8565b9450613017565b8093505050505b919050565b6130db826128e1565b61311a576040517f08c379a0000000000000000000000000000000000000000000000000000000008152600401613111906144a8565b60405180910390fd5b80600660008481526020019081526020016000209080519060200190613141929190613662565b505050565b6000600760009054906101000a900473ffffffffffffffffffffffffffffffffffffffff16905081600760006101000a81548173ffffffffffffffffffffffffffffffffffffffff021916908373ffffffffffffffffffffffffffffffffffffffff1602179055508173ffffffffffffffffffffffffffffffffffffffff168173ffffffffffffffffffffffffffffffffffffffff167f8be0079c531659141344cd1fd0a4f28419497f9722a3daafe3b4186f6b6457e060405160405180910390a35050565b60008261321985846133f6565b1490509392505050565b8173ffffffffffffffffffffffffffffffffffffffff168373ffffffffffffffffffffffffffffffffffffffff161415613292576040517f08c379a0000000000000000000000000000000000000000000000000000000008152600401613289906143a8565b60405180910390fd5b80600560008573ffffffffffffffffffffffffffffffffffffffff1673ffffffffffffffffffffffffffffffffffffffff16815260200190815260200160002060008473ffffffffffffffffffffffffffffffffffffffff1673ffffffffffffffffffffffffffffffffffffffff16815260200190815260200160002060006101000a81548160ff0219169083151502179055508173ffffffffffffffffffffffffffffffffffffffff168373ffffffffffffffffffffffffffffffffffffffff167f17307eab39ab6107e8899845ad3d59bd9653f200f220920489ca2b5937696c318360405161338391906142b0565b60405180910390a3505050565b61339b848484612ae4565b6133a784848484613491565b6133e6576040517f08c379a00000000000000000000000000000000000000000000000000000000081526004016133dd90614308565b60405180910390fd5b50505050565b505050565b505050565b60008082905060005b8451811015613486576000858281518110613443577f4e487b7100000000000000000000000000000000000000000000000000000000600052603260045260246000fd5b602002602001015190508083116134655761345e8382613628565b9250613472565b61346f8184613628565b92505b50808061347e906149ac565b9150506133ff565b508091505092915050565b60006134b28473ffffffffffffffffffffffffffffffffffffffff1661363f565b1561361b578373ffffffffffffffffffffffffffffffffffffffff1663150b7a026134db6128d9565b8786866040518563ffffffff1660e01b81526004016134fd949392919061423b565b602060405180830381600087803b15801561351757600080fd5b505af192505050801561354857506040513d601f19601f820116820180604052508101906135459190613b6c565b60015b6135cb573d8060008114613578576040519150601f19603f3d011682016040523d82523d6000602084013e61357d565b606091505b506000815114156135c3576040517f08c379a00000000000000000000000000000000000000000000000000000000081526004016135ba90614308565b60405180910390fd5b805181602001fd5b63150b7a0260e01b7bffffffffffffffffffffffffffffffffffffffffffffffffffffffff1916817bffffffffffffffffffffffffffffffffffffffffffffffffffffffff191614915050613620565b600190505b949350505050565b600082600052816020526040600020905092915050565b6000808273ffffffffffffffffffffffffffffffffffffffff163b119050919050565b82805461366e90614949565b90600052602060002090601f01602090048101928261369057600085556136d7565b82601f106136a957805160ff19168380011785556136d7565b828001600101855582156136d7579182015b828111156136d65782518255916020019190600101906136bb565b5b5090506136e491906136e8565b5090565b5b808211156137015760008160009055506001016136e9565b5090565b6000613718613713846146a8565b614683565b90508281526020810184848401111561373057600080fd5b61373b848285614907565b509392505050565b6000613756613751846146d9565b614683565b90508281526020810184848401111561376e57600080fd5b613779848285614907565b509392505050565b60008135905061379081615298565b92915050565b60008083601f8401126137a857600080fd5b8235905067ffffffffffffffff8111156137c157600080fd5b6020830191508360208202830111156137d957600080fd5b9250929050565b6000813590506137ef816152af565b92915050565b600081519050613804816152af565b92915050565b600081359050613819816152c6565b92915050565b60008135905061382e816152dd565b92915050565b600081519050613843816152dd565b92915050565b600082601f83011261385a57600080fd5b813561386a848260208601613705565b91505092915050565b600081359050613882816152f4565b92915050565b600082601f83011261389957600080fd5b81356138a9848260208601613743565b91505092915050565b6000813590506138c18161530b565b92915050565b6000815190506138d68161530b565b92915050565b6000602082840312156138ee57600080fd5b60006138fc84828501613781565b91505092915050565b6000806040838503121561391857600080fd5b600061392685828601613781565b925050602061393785828601613781565b9150509250929050565b60008060006060848603121561395657600080fd5b600061396486828701613781565b935050602061397586828701613781565b9250506040613986868287016138b2565b9150509250925092565b600080600080608085870312156139a657600080fd5b60006139b487828801613781565b94505060206139c587828801613781565b93505060406139d6878288016138b2565b925050606085013567ffffffffffffffff8111156139f357600080fd5b6139ff87828801613849565b91505092959194509250565b60008060408385031215613a1e57600080fd5b6000613a2c85828601613781565b9250506020613a3d858286016137e0565b9150509250929050565b60008060408385031215613a5a57600080fd5b6000613a6885828601613781565b9250506020613a79858286016138b2565b9150509250929050565b60008060208385031215613a9657600080fd5b600083013567ffffffffffffffff811115613ab057600080fd5b613abc85828601613796565b92509250509250929050565b600060208284031215613ada57600080fd5b6000613ae8848285016137e0565b91505092915050565b600060208284031215613b0357600080fd5b6000613b11848285016137f5565b91505092915050565b600060208284031215613b2c57600080fd5b6000613b3a8482850161380a565b91505092915050565b600060208284031215613b5557600080fd5b6000613b638482850161381f565b91505092915050565b600060208284031215613b7e57600080fd5b6000613b8c84828501613834565b91505092915050565b600060208284031215613ba757600080fd5b6000613bb584828501613873565b91505092915050565b600060208284031215613bd057600080fd5b600082013567ffffffffffffffff811115613bea57600080fd5b613bf684828501613888565b91505092915050565b600060208284031215613c1157600080fd5b6000613c1f848285016138b2565b91505092915050565b600060208284031215613c3a57600080fd5b6000613c48848285016138c7565b91505092915050565b60008060408385031215613c6457600080fd5b6000613c72858286016138b2565b9250506020613c83858286016138b2565b9150509250929050565b613c9681614877565b82525050565b613cad613ca882614877565b6149f5565b82525050565b613cbc81614889565b82525050565b613ccb81614895565b82525050565b6000613cdc8261471f565b613ce68185614735565b9350613cf6818560208601614916565b613cff81614b06565b840191505092915050565b6000613d158261472a565b613d1f8185614746565b9350613d2f818560208601614916565b613d3881614b06565b840191505092915050565b6000613d4e8261472a565b613d588185614757565b9350613d68818560208601614916565b80840191505092915050565b60008154613d8181614949565b613d8b8186614757565b94506001821660008114613da65760018114613db757613dea565b60ff19831686528186019350613dea565b613dc08561470a565b60005b83811015613de257815481890152600182019150602081019050613dc3565b838801955050505b50505092915050565b6000613e00603283614746565b9150613e0b82614b24565b604082019050919050565b6000613e23602683614746565b9150613e2e82614b73565b604082019050919050565b6000613e46602583614746565b9150613e5182614bc2565b604082019050919050565b6000613e69601c83614746565b9150613e7482614c11565b602082019050919050565b6000613e8c602483614746565b9150613e9782614c3a565b604082019050919050565b6000613eaf601983614746565b9150613eba82614c89565b602082019050919050565b6000613ed2602883614746565b9150613edd82614cb2565b604082019050919050565b6000613ef5602c83614746565b9150613f0082614d01565b604082019050919050565b6000613f18603883614746565b9150613f2382614d50565b604082019050919050565b6000613f3b604283614746565b9150613f4682614d9f565b606082019050919050565b6000613f5e602383614746565b9150613f6982614e14565b604082019050919050565b6000613f81602a83614746565b9150613f8c82614e63565b604082019050919050565b6000613fa4602983614746565b9150613faf82614eb2565b604082019050919050565b6000613fc7602e83614746565b9150613fd282614f01565b604082019050919050565b6000613fea601f83614746565b9150613ff582614f50565b602082019050919050565b600061400d602083614746565b915061401882614f79565b602082019050919050565b6000614030602c83614746565b915061403b82614fa2565b604082019050919050565b6000614053600583614757565b915061405e82614ff1565b600582019050919050565b6000614076602083614746565b91506140818261501a565b602082019050919050565b6000614099602683614746565b91506140a482615043565b604082019050919050565b60006140bc601983614746565b91506140c782615092565b602082019050919050565b60006140df602183614746565b91506140ea826150bb565b604082019050919050565b6000614102603183614746565b915061410d8261510a565b604082019050919050565b6000614125602f83614746565b915061413082615159565b604082019050919050565b6000614148601c83614746565b9150614153826151a8565b602082019050919050565b600061416b602b83614746565b9150614176826151d1565b604082019050919050565b600061418e601f83614746565b915061419982615220565b602082019050919050565b60006141b1602d83614746565b91506141bc82615249565b604082019050919050565b6141d0816148fd565b82525050565b60006141e28284613c9c565b60148201915081905092915050565b60006141fd8285613d74565b91506142098284613d43565b915061421482614046565b91508190509392505050565b60006020820190506142356000830184613c8d565b92915050565b60006080820190506142506000830187613c8d565b61425d6020830186613c8d565b61426a60408301856141c7565b818103606083015261427c8184613cd1565b905095945050505050565b600060408201905061429c6000830185613c8d565b6142a960208301846141c7565b9392505050565b60006020820190506142c56000830184613cb3565b92915050565b60006020820190506142e06000830184613cc2565b92915050565b600060208201905081810360008301526143008184613d0a565b905092915050565b6000602082019050818103600083015261432181613df3565b9050919050565b6000602082019050818103600083015261434181613e16565b9050919050565b6000602082019050818103600083015261436181613e39565b9050919050565b6000602082019050818103600083015261438181613e5c565b9050919050565b600060208201905081810360008301526143a181613e7f565b9050919050565b600060208201905081810360008301526143c181613ea2565b9050919050565b600060208201905081810360008301526143e181613ec5565b9050919050565b6000602082019050818103600083015261440181613ee8565b9050919050565b6000602082019050818103600083015261442181613f0b565b9050919050565b6000602082019050818103600083015261444181613f2e565b9050919050565b6000602082019050818103600083015261446181613f51565b9050919050565b6000602082019050818103600083015261448181613f74565b9050919050565b600060208201905081810360008301526144a181613f97565b9050919050565b600060208201905081810360008301526144c181613fba565b9050919050565b600060208201905081810360008301526144e181613fdd565b9050919050565b6000602082019050818103600083015261450181614000565b9050919050565b6000602082019050818103600083015261452181614023565b9050919050565b6000602082019050818103600083015261454181614069565b9050919050565b600060208201905081810360008301526145618161408c565b9050919050565b60006020820190508181036000830152614581816140af565b9050919050565b600060208201905081810360008301526145a1816140d2565b9050919050565b600060208201905081810360008301526145c1816140f5565b9050919050565b600060208201905081810360008301526145e181614118565b9050919050565b600060208201905081810360008301526146018161413b565b9050919050565b600060208201905081810360008301526146218161415e565b9050919050565b6000602082019050818103600083015261464181614181565b9050919050565b60006020820190508181036000830152614661816141a4565b9050919050565b600060208201905061467d60008301846141c7565b92915050565b600061468d61469e565b9050614699828261497b565b919050565b6000604051905090565b600067ffffffffffffffff8211156146c3576146c2614ad7565b5b6146cc82614b06565b9050602081019050919050565b600067ffffffffffffffff8211156146f4576146f3614ad7565b5b6146fd82614b06565b9050602081019050919050565b60008190508160005260206000209050919050565b600081519050919050565b600081519050919050565b600082825260208201905092915050565b600082825260208201905092915050565b600081905092915050565b600061476d826148fd565b9150614778836148fd565b9250827fffffffffffffffffffffffffffffffffffffffffffffffffffffffffffffffff038211156147ad576147ac614a4a565b5b828201905092915050565b60006147c3826148fd565b91506147ce836148fd565b9250826147de576147dd614a79565b5b828204905092915050565b60006147f4826148fd565b91506147ff836148fd565b9250817fffffffffffffffffffffffffffffffffffffffffffffffffffffffffffffffff048311821515161561483857614837614a4a565b5b828202905092915050565b600061484e826148fd565b9150614859836148fd565b92508282101561486c5761486b614a4a565b5b828203905092915050565b6000614882826148dd565b9050919050565b60008115159050919050565b6000819050919050565b60007fffffffff0000000000000000000000000000000000000000000000000000000082169050919050565b60006148d682614877565b9050919050565b600073ffffffffffffffffffffffffffffffffffffffff82169050919050565b6000819050919050565b82818337600083830152505050565b60005b83811015614934578082015181840152602081019050614919565b83811115614943576000848401525b50505050565b6000600282049050600182168061496157607f821691505b6020821081141561497557614974614aa8565b5b50919050565b61498482614b06565b810181811067ffffffffffffffff821117156149a3576149a2614ad7565b5b80604052505050565b60006149b7826148fd565b91507fffffffffffffffffffffffffffffffffffffffffffffffffffffffffffffffff8214156149ea576149e9614a4a565b5b600182019050919050565b6000614a0082614a07565b9050919050565b6000614a1282614b17565b9050919050565b6000614a24826148fd565b9150614a2f836148fd565b925082614a3f57614a3e614a79565b5b828206905092915050565b7f4e487b7100000000000000000000000000000000000000000000000000000000600052601160045260246000fd5b7f4e487b7100000000000000000000000000000000000000000000000000000000600052601260045260246000fd5b7f4e487b7100000000000000000000000000000000000000000000000000000000600052602260045260246000fd5b7f4e487b7100000000000000000000000000000000000000000000000000000000600052604160045260246000fd5b6000601f19601f8301169050919050565b60008160601b9050919050565b7f4552433732313a207472616e7366657220746f206e6f6e20455243373231526560008201527f63656976657220696d706c656d656e7465720000000000000000000000000000602082015250565b7f4f776e61626c653a206e6577206f776e657220697320746865207a65726f206160008201527f6464726573730000000000000000000000000000000000000000000000000000602082015250565b7f4552433732313a207472616e736665722066726f6d20696e636f72726563742060008201527f6f776e6572000000000000000000000000000000000000000000000000000000602082015250565b7f4552433732313a20746f6b656e20616c7265616479206d696e74656400000000600082015250565b7f4552433732313a207472616e7366657220746f20746865207a65726f2061646460008201527f7265737300000000000000000000000000000000000000000000000000000000602082015250565b7f4552433732313a20617070726f766520746f2063616c6c657200000000000000600082015250565b7f4552523a20596f752063616e6e6f74206d696e74206d6f72652061742074686960008201527f7320706861736521000000000000000000000000000000000000000000000000602082015250565b7f4552433732313a206f70657261746f7220717565727920666f72206e6f6e657860008201527f697374656e7420746f6b656e0000000000000000000000000000000000000000602082015250565b7f4552433732313a20617070726f76652063616c6c6572206973206e6f74206f7760008201527f6e6572206e6f7220617070726f76656420666f7220616c6c0000000000000000602082015250565b7f4572726f723a20596f7520617265206e6f7420616c6c6f77656420746f206d6960008201527f6e7420756e74696c20746865206f776e657220737461727473204d696e74696e60208201527f6721000000000000000000000000000000000000000000000000000000000000604082015250565b7f4572726f723a2053656e74204554482076616c756520697320494e434f52524560008201527f4354210000000000000000000000000000000000000000000000000000000000602082015250565b7f4552433732313a2062616c616e636520717565727920666f7220746865207a6560008201527f726f206164647265737300000000000000000000000000000000000000000000602082015250565b7f4552433732313a206f776e657220717565727920666f72206e6f6e657869737460008201527f656e7420746f6b656e0000000000000000000000000000000000000000000000602082015250565b7f45524337323155524953746f726167653a2055524920736574206f66206e6f6e60008201527f6578697374656e7420746f6b656e000000000000000000000000000000000000602082015250565b7f4552523a2057686974654c6973744d696e742069732066696e69736865642100600082015250565b7f4552433732313a206d696e7420746f20746865207a65726f2061646472657373600082015250565b7f4552433732313a20617070726f76656420717565727920666f72206e6f6e657860008201527f697374656e7420746f6b656e0000000000000000000000000000000000000000602082015250565b7f2e6a736f6e000000000000000000000000000000000000000000000000000000600082015250565b7f4f776e61626c653a2063616c6c6572206973206e6f7420746865206f776e6572600082015250565b7f4572726f723a2041646472657373206973204e4f542077686974656c6973746560008201527f6420796574210000000000000000000000000000000000000000000000000000602082015250565b7f4552523a20596f7520616c726561647920636c61696d65642100000000000000600082015250565b7f4552433732313a20617070726f76616c20746f2063757272656e74206f776e6560008201527f7200000000000000000000000000000000000000000000000000000000000000602082015250565b7f4552433732313a207472616e736665722063616c6c6572206973206e6f74206f60008201527f776e6572206e6f7220617070726f766564000000000000000000000000000000602082015250565b7f4572726f723a20416c7265616479206d696e746564206d6178696d756d206e7560008201527f6d626572206f6620746f6b656e73210000000000000000000000000000000000602082015250565b7f4572726f723a20546f6b656e20646f6573206e6f742065786973742100000000600082015250565b7f4572726f723a204e6f7420656e6f75676820746f6b656e732072656d61696e6960008201527f6e6720746f206d696e7421000000000000000000000000000000000000000000602082015250565b7f5265656e7472616e637947756172643a207265656e7472616e742063616c6c00600082015250565b7f4552523a20596f7520617265206e6f74206120636f727265637420636f6d6d7560008201527f6e697479206d656d656265722100000000000000000000000000000000000000602082015250565b6152a181614877565b81146152ac57600080fd5b50565b6152b881614889565b81146152c357600080fd5b50565b6152cf81614895565b81146152da57600080fd5b50565b6152e68161489f565b81146152f157600080fd5b50565b6152fd816148cb565b811461530857600080fd5b50565b615314816148fd565b811461531f57600080fd5b5056fea2646970667358221220ff3359f2fadb5e307d3be6e8ab3c812872eb37929b0caaaf79cfcb9348b73bde64736f6c63430008040033",
  "linkReferences": {},
  "deployedLinkReferences": {}
}