{
  "_format": "hh-sol-artifact-1",
  "contractName": "LilBruvsNFT",
  "sourceName": "contracts/LilBruvsNFT.sol",
  "abi": [
    {
      "inputs": [],
      "stateMutability": "nonpayable",
      "type": "constructor"
    },
    {
      "anonymous": false,
      "inputs": [
        {
          "indexed": true,
          "internalType": "address",
          "name": "owner",
          "type": "address"
        },
        {
          "indexed": true,
          "internalType": "address",
          "name": "approved",
          "type": "address"
        },
        {
          "indexed": true,
          "internalType": "uint256",
          "name": "tokenId",
          "type": "uint256"
        }
      ],
      "name": "Approval",
      "type": "event"
    },
    {
      "anonymous": false,
      "inputs": [
        {
          "indexed": true,
          "internalType": "address",
          "name": "owner",
          "type": "address"
        },
        {
          "indexed": true,
          "internalType": "address",
          "name": "operator",
          "type": "address"
        },
        {
          "indexed": false,
          "internalType": "bool",
          "name": "approved",
          "type": "bool"
        }
      ],
      "name": "ApprovalForAll",
      "type": "event"
    },
    {
      "anonymous": false,
      "inputs": [
        {
          "indexed": true,
          "internalType": "address",
          "name": "previousOwner",
          "type": "address"
        },
        {
          "indexed": true,
          "internalType": "address",
          "name": "newOwner",
          "type": "address"
        }
      ],
      "name": "OwnershipTransferred",
      "type": "event"
    },
    {
      "anonymous": false,
      "inputs": [
        {
          "indexed": true,
          "internalType": "address",
          "name": "from",
          "type": "address"
        },
        {
          "indexed": true,
          "internalType": "address",
          "name": "to",
          "type": "address"
        },
        {
          "indexed": true,
          "internalType": "uint256",
          "name": "tokenId",
          "type": "uint256"
        }
      ],
      "name": "Transfer",
      "type": "event"
    },
    {
      "inputs": [],
      "name": "DROP_NUMBER",
      "outputs": [
        {
          "internalType": "uint256",
          "name": "",
          "type": "uint256"
        }
      ],
      "stateMutability": "view",
      "type": "function"
    },
    {
      "inputs": [],
      "name": "SALE_PRICE",
      "outputs": [
        {
          "internalType": "uint256",
          "name": "",
          "type": "uint256"
        }
      ],
      "stateMutability": "view",
      "type": "function"
    },
    {
      "inputs": [
        {
          "internalType": "address",
          "name": "to",
          "type": "address"
        },
        {
          "internalType": "uint256",
          "name": "tokenId",
          "type": "uint256"
        }
      ],
      "name": "approve",
      "outputs": [],
      "stateMutability": "nonpayable",
      "type": "function"
    },
    {
      "inputs": [
        {
          "internalType": "address",
          "name": "owner",
          "type": "address"
        }
      ],
      "name": "balanceOf",
      "outputs": [
        {
          "internalType": "uint256",
          "name": "",
          "type": "uint256"
        }
      ],
      "stateMutability": "view",
      "type": "function"
    },
    {
      "inputs": [],
      "name": "baseURI",
      "outputs": [
        {
          "internalType": "string",
          "name": "",
          "type": "string"
        }
      ],
      "stateMutability": "view",
      "type": "function"
    },
    {
      "inputs": [],
      "name": "distributeTreasure",
      "outputs": [],
      "stateMutability": "nonpayable",
      "type": "function"
    },
    {
      "inputs": [
        {
          "internalType": "uint256",
          "name": "tokenId",
          "type": "uint256"
        }
      ],
      "name": "getApproved",
      "outputs": [
        {
          "internalType": "address",
          "name": "",
          "type": "address"
        }
      ],
      "stateMutability": "view",
      "type": "function"
    },
    {
      "inputs": [
        {
          "internalType": "address",
          "name": "owner",
          "type": "address"
        },
        {
          "internalType": "address",
          "name": "operator",
          "type": "address"
        }
      ],
      "name": "isApprovedForAll",
      "outputs": [
        {
          "internalType": "bool",
          "name": "",
          "type": "bool"
        }
      ],
      "stateMutability": "view",
      "type": "function"
    },
    {
      "inputs": [],
      "name": "isPaused",
      "outputs": [
        {
          "internalType": "bool",
          "name": "",
          "type": "bool"
        }
      ],
      "stateMutability": "view",
      "type": "function"
    },
    {
      "inputs": [],
      "name": "maxDropMint",
      "outputs": [
        {
          "internalType": "uint256",
          "name": "",
          "type": "uint256"
        }
      ],
      "stateMutability": "view",
      "type": "function"
    },
    {
      "inputs": [],
      "name": "name",
      "outputs": [
        {
          "internalType": "string",
          "name": "",
          "type": "string"
        }
      ],
      "stateMutability": "view",
      "type": "function"
    },
    {
      "inputs": [],
      "name": "owner",
      "outputs": [
        {
          "internalType": "address",
          "name": "",
          "type": "address"
        }
      ],
      "stateMutability": "view",
      "type": "function"
    },
    {
      "inputs": [
        {
          "internalType": "uint256",
          "name": "tokenId",
          "type": "uint256"
        }
      ],
      "name": "ownerOf",
      "outputs": [
        {
          "internalType": "address",
          "name": "",
          "type": "address"
        }
      ],
      "stateMutability": "view",
      "type": "function"
    },
    {
      "inputs": [
        {
          "internalType": "uint256",
          "name": "numberOfTokens",
          "type": "uint256"
        }
      ],
      "name": "publicMint",
      "outputs": [],
      "stateMutability": "payable",
      "type": "function"
    },
    {
      "inputs": [],
      "name": "publicMintId",
      "outputs": [
        {
          "internalType": "uint256",
          "name": "",
          "type": "uint256"
        }
      ],
      "stateMutability": "view",
      "type": "function"
    },
    {
      "inputs": [],
      "name": "renounceOwnership",
      "outputs": [],
      "stateMutability": "nonpayable",
      "type": "function"
    },
    {
      "inputs": [
        {
          "internalType": "address",
          "name": "from",
          "type": "address"
        },
        {
          "internalType": "address",
          "name": "to",
          "type": "address"
        },
        {
          "internalType": "uint256",
          "name": "tokenId",
          "type": "uint256"
        }
      ],
      "name": "safeTransferFrom",
      "outputs": [],
      "stateMutability": "nonpayable",
      "type": "function"
    },
    {
      "inputs": [
        {
          "internalType": "address",
          "name": "from",
          "type": "address"
        },
        {
          "internalType": "address",
          "name": "to",
          "type": "address"
        },
        {
          "internalType": "uint256",
          "name": "tokenId",
          "type": "uint256"
        },
        {
          "internalType": "bytes",
          "name": "_data",
          "type": "bytes"
        }
      ],
      "name": "safeTransferFrom",
      "outputs": [],
      "stateMutability": "nonpayable",
      "type": "function"
    },
    {
      "inputs": [
        {
          "internalType": "address",
          "name": "operator",
          "type": "address"
        },
        {
          "internalType": "bool",
          "name": "approved",
          "type": "bool"
        }
      ],
      "name": "setApprovalForAll",
      "outputs": [],
      "stateMutability": "nonpayable",
      "type": "function"
    },
    {
      "inputs": [
        {
          "internalType": "string",
          "name": "_baseURI",
          "type": "string"
        }
      ],
      "name": "setBaseURI",
      "outputs": [],
      "stateMutability": "nonpayable",
      "type": "function"
    },
    {
      "inputs": [
        {
          "internalType": "uint256",
          "name": "_dropNumber",
          "type": "uint256"
        }
      ],
      "name": "setDrop",
      "outputs": [],
      "stateMutability": "nonpayable",
      "type": "function"
    },
    {
      "inputs": [
        {
          "internalType": "bool",
          "name": "_paused",
          "type": "bool"
        }
      ],
      "name": "setPaused",
      "outputs": [],
      "stateMutability": "nonpayable",
      "type": "function"
    },
    {
      "inputs": [
        {
          "internalType": "uint256",
          "name": "_price",
          "type": "uint256"
        }
      ],
      "name": "setSalePrice",
      "outputs": [],
      "stateMutability": "nonpayable",
      "type": "function"
    },
    {
      "inputs": [
        {
          "internalType": "bytes4",
          "name": "interfaceId",
          "type": "bytes4"
        }
      ],
      "name": "supportsInterface",
      "outputs": [
        {
          "internalType": "bool",
          "name": "",
          "type": "bool"
        }
      ],
      "stateMutability": "view",
      "type": "function"
    },
    {
      "inputs": [],
      "name": "symbol",
      "outputs": [
        {
          "internalType": "string",
          "name": "",
          "type": "string"
        }
      ],
      "stateMutability": "view",
      "type": "function"
    },
    {
      "inputs": [
        {
          "internalType": "uint256",
          "name": "tokenId",
          "type": "uint256"
        }
      ],
      "name": "tokenURI",
      "outputs": [
        {
          "internalType": "string",
          "name": "",
          "type": "string"
        }
      ],
      "stateMutability": "view",
      "type": "function"
    },
    {
      "inputs": [
        {
          "internalType": "address",
          "name": "from",
          "type": "address"
        },
        {
          "internalType": "address",
          "name": "to",
          "type": "address"
        },
        {
          "internalType": "uint256",
          "name": "tokenId",
          "type": "uint256"
        }
      ],
      "name": "transferFrom",
      "outputs": [],
      "stateMutability": "nonpayable",
      "type": "function"
    },
    {
      "inputs": [
        {
          "internalType": "address",
          "name": "newOwner",
          "type": "address"
        }
      ],
      "name": "transferOwnership",
      "outputs": [],
      "stateMutability": "nonpayable",
      "type": "function"
    },
    {
      "inputs": [],
      "name": "withdraw",
      "outputs": [],
      "stateMutability": "nonpayable",
      "type": "function"
    },
    {
      "inputs": [
        {
          "internalType": "contract IERC20",
          "name": "token",
          "type": "address"
        }
      ],
      "name": "withdrawTokens",
      "outputs": [],
      "stateMutability": "nonpayable",
      "type": "function"
    }
  ],
  "bytecode": "0x6080604052610190600a556001600b556000600c556001600d556001600e60006101000a81548160ff02191690831515021790555073194f207ac9c55dbdcea44d3ff65b5d427e5b7f62600e60016101000a81548173ffffffffffffffffffffffffffffffffffffffff021916908373ffffffffffffffffffffffffffffffffffffffff16021790555073fbe11ede3c277594e86251650a98b26c776ea033600f60006101000a81548173ffffffffffffffffffffffffffffffffffffffff021916908373ffffffffffffffffffffffffffffffffffffffff16021790555073fe116480682f4f8702fa87d5146dbf2b5f0c6a9b601060006101000a81548173ffffffffffffffffffffffffffffffffffffffff021916908373ffffffffffffffffffffffffffffffffffffffff16021790555073abaa41ecf5f6bd12cdfcac3751d8d06f8c16351f601160006101000a81548173ffffffffffffffffffffffffffffffffffffffff021916908373ffffffffffffffffffffffffffffffffffffffff1602179055503480156200019557600080fd5b506040518060400160405280600b81526020017f4c696c42727576734e46540000000000000000000000000000000000000000008152506040518060400160405280600381526020017f4e4654000000000000000000000000000000000000000000000000000000000081525081600090805190602001906200021a929190620004e5565b50806001908051906020019062000233929190620004e5565b505050620002566200024a6200029660201b60201c565b6200029e60201b60201c565b60016008819055506200027e604051806020016040528060008152506200036460201b60201c565b6200029060016200040f60201b60201c565b6200067d565b600033905090565b6000600760009054906101000a900473ffffffffffffffffffffffffffffffffffffffff16905081600760006101000a81548173ffffffffffffffffffffffffffffffffffffffff021916908373ffffffffffffffffffffffffffffffffffffffff1602179055508173ffffffffffffffffffffffffffffffffffffffff168173ffffffffffffffffffffffffffffffffffffffff167f8be0079c531659141344cd1fd0a4f28419497f9722a3daafe3b4186f6b6457e060405160405180910390a35050565b620003746200029660201b60201c565b73ffffffffffffffffffffffffffffffffffffffff166200039a620004bb60201b60201c565b73ffffffffffffffffffffffffffffffffffffffff1614620003f3576040517f08c379a0000000000000000000000000000000000000000000000000000000008152600401620003ea90620005bc565b60405180910390fd5b80600990805190602001906200040b929190620004e5565b5050565b6200041f6200029660201b60201c565b73ffffffffffffffffffffffffffffffffffffffff1662000445620004bb60201b60201c565b73ffffffffffffffffffffffffffffffffffffffff16146200049e576040517f08c379a00000000000000000000000000000000000000000000000000000000081526004016200049590620005bc565b60405180910390fd5b80600e60006101000a81548160ff02191690831515021790555050565b6000600760009054906101000a900473ffffffffffffffffffffffffffffffffffffffff16905090565b828054620004f390620005ef565b90600052602060002090601f01602090048101928262000517576000855562000563565b82601f106200053257805160ff191683800117855562000563565b8280016001018555821562000563579182015b828111156200056257825182559160200191906001019062000545565b5b50905062000572919062000576565b5090565b5b808211156200059157600081600090555060010162000577565b5090565b6000620005a4602083620005de565b9150620005b18262000654565b602082019050919050565b60006020820190508181036000830152620005d78162000595565b9050919050565b600082825260208201905092915050565b600060028204905060018216806200060857607f821691505b602082108114156200061f576200061e62000625565b5b50919050565b7f4e487b7100000000000000000000000000000000000000000000000000000000600052602260045260246000fd5b7f4f776e61626c653a2063616c6c6572206973206e6f7420746865206f776e6572600082015250565b613f37806200068d6000396000f3fe6080604052600436106101cd5760003560e01c80636c0360eb116100f7578063a0650dc011610095578063b88d4fde11610064578063b88d4fde1461061b578063c87b56dd14610644578063e985e9c514610681578063f2fde38b146106be576101cd565b8063a0650dc014610585578063a22cb4651461059c578063a32ef41a146105c5578063b187bd26146105f0576101cd565b80637f205a74116100d15780637f205a74146104d95780638b6b46ce146105045780638da5cb5b1461052f57806395d89b411461055a576101cd565b80636c0360eb1461045a57806370a0823114610485578063715018a6146104c2576101cd565b806323ad1dac1161016f57806342842e0e1161013e57806342842e0e146103a257806349df728c146103cb57806355f804b3146103f45780636352211e1461041d576101cd565b806323ad1dac1461031d57806323b872dd146103465780632db115441461036f5780633ccfd60b1461038b576101cd565b8063095ea7b3116101ab578063095ea7b3146102775780630fab6197146102a057806316c38b3c146102cb5780631919fed7146102f4576101cd565b806301ffc9a7146101d257806306fdde031461020f578063081812fc1461023a575b600080fd5b3480156101de57600080fd5b506101f960048036038101906101f49190612a9a565b6106e7565b60405161020691906130db565b60405180910390f35b34801561021b57600080fd5b506102246107c9565b60405161023191906130f6565b60405180910390f35b34801561024657600080fd5b50610261600480360381019061025c9190612b56565b61085b565b60405161026e919061304b565b60405180910390f35b34801561028357600080fd5b5061029e60048036038101906102999190612a0c565b6108e0565b005b3480156102ac57600080fd5b506102b56109f8565b6040516102c291906133d8565b60405180910390f35b3480156102d757600080fd5b506102f260048036038101906102ed9190612a48565b6109fe565b005b34801561030057600080fd5b5061031b60048036038101906103169190612b56565b610a97565b005b34801561032957600080fd5b50610344600480360381019061033f9190612b56565b610b1d565b005b34801561035257600080fd5b5061036d60048036038101906103689190612906565b610ba3565b005b61038960048036038101906103849190612b56565b610c03565b005b34801561039757600080fd5b506103a0610dac565b005b3480156103ae57600080fd5b506103c960048036038101906103c49190612906565b610e77565b005b3480156103d757600080fd5b506103f260048036038101906103ed9190612aec565b610e97565b005b34801561040057600080fd5b5061041b60048036038101906104169190612b15565b611032565b005b34801561042957600080fd5b50610444600480360381019061043f9190612b56565b6110c8565b604051610451919061304b565b60405180910390f35b34801561046657600080fd5b5061046f61117a565b60405161047c91906130f6565b60405180910390f35b34801561049157600080fd5b506104ac60048036038101906104a791906128a1565b611208565b6040516104b991906133d8565b60405180910390f35b3480156104ce57600080fd5b506104d76112c0565b005b3480156104e557600080fd5b506104ee611348565b6040516104fb91906133d8565b60405180910390f35b34801561051057600080fd5b5061051961134e565b60405161052691906133d8565b60405180910390f35b34801561053b57600080fd5b50610544611354565b604051610551919061304b565b60405180910390f35b34801561056657600080fd5b5061056f61137e565b60405161057c91906130f6565b60405180910390f35b34801561059157600080fd5b5061059a611410565b005b3480156105a857600080fd5b506105c360048036038101906105be91906129d0565b6116c3565b005b3480156105d157600080fd5b506105da6116d9565b6040516105e791906133d8565b60405180910390f35b3480156105fc57600080fd5b506106056116df565b60405161061291906130db565b60405180910390f35b34801561062757600080fd5b50610642600480360381019061063d9190612955565b6116f2565b005b34801561065057600080fd5b5061066b60048036038101906106669190612b56565b611754565b60405161067891906130f6565b60405180910390f35b34801561068d57600080fd5b506106a860048036038101906106a391906128ca565b6117d0565b6040516106b591906130db565b60405180910390f35b3480156106ca57600080fd5b506106e560048036038101906106e091906128a1565b611864565b005b60007f80ac58cd000000000000000000000000000000000000000000000000000000007bffffffffffffffffffffffffffffffffffffffffffffffffffffffff1916827bffffffffffffffffffffffffffffffffffffffffffffffffffffffff191614806107b257507f5b5e139f000000000000000000000000000000000000000000000000000000007bffffffffffffffffffffffffffffffffffffffffffffffffffffffff1916827bffffffffffffffffffffffffffffffffffffffffffffffffffffffff1916145b806107c257506107c18261195c565b5b9050919050565b6060600080546107d8906136af565b80601f0160208091040260200160405190810160405280929190818152602001828054610804906136af565b80156108515780601f1061082657610100808354040283529160200191610851565b820191906000526020600020905b81548152906001019060200180831161083457829003601f168201915b5050505050905090565b6000610866826119c6565b6108a5576040517f08c379a000000000000000000000000000000000000000000000000000000000815260040161089c906132d8565b60405180910390fd5b6004600083815260200190815260200160002060009054906101000a900473ffffffffffffffffffffffffffffffffffffffff169050919050565b60006108eb826110c8565b90508073ffffffffffffffffffffffffffffffffffffffff168373ffffffffffffffffffffffffffffffffffffffff16141561095c576040517f08c379a000000000000000000000000000000000000000000000000000000000815260040161095390613318565b60405180910390fd5b8073ffffffffffffffffffffffffffffffffffffffff1661097b611a32565b73ffffffffffffffffffffffffffffffffffffffff1614806109aa57506109a9816109a4611a32565b6117d0565b5b6109e9576040517f08c379a00000000000000000000000000000000000000000000000000000000081526004016109e0906131f8565b60405180910390fd5b6109f38383611a3a565b505050565b600b5481565b610a06611a32565b73ffffffffffffffffffffffffffffffffffffffff16610a24611354565b73ffffffffffffffffffffffffffffffffffffffff1614610a7a576040517f08c379a0000000000000000000000000000000000000000000000000000000008152600401610a71906132f8565b60405180910390fd5b80600e60006101000a81548160ff02191690831515021790555050565b610a9f611a32565b73ffffffffffffffffffffffffffffffffffffffff16610abd611354565b73ffffffffffffffffffffffffffffffffffffffff1614610b13576040517f08c379a0000000000000000000000000000000000000000000000000000000008152600401610b0a906132f8565b60405180910390fd5b80600c8190555050565b610b25611a32565b73ffffffffffffffffffffffffffffffffffffffff16610b43611354565b73ffffffffffffffffffffffffffffffffffffffff1614610b99576040517f08c379a0000000000000000000000000000000000000000000000000000000008152600401610b90906132f8565b60405180910390fd5b80600d8190555050565b610bb4610bae611a32565b82611af3565b610bf3576040517f08c379a0000000000000000000000000000000000000000000000000000000008152600401610bea90613338565b60405180910390fd5b610bfe838383611bd1565b505050565b600e60009054906101000a900460ff1615610c53576040517f08c379a0000000000000000000000000000000000000000000000000000000008152600401610c4a90613218565b60405180910390fd5b600c5481348183610c649190613559565b14610ca4576040517f08c379a0000000000000000000000000000000000000000000000000000000008152600401610c9b90613238565b60405180910390fd5b82600a5481600b54610cb691906134d2565b1115610cf7576040517f08c379a0000000000000000000000000000000000000000000000000000000008152600401610cee90613378565b60405180910390fd5b60026008541415610d3d576040517f08c379a0000000000000000000000000000000000000000000000000000000008152600401610d3490613398565b60405180910390fd5b600260088190555060005b84811015610d9d57610d5c33600b54611e38565b610d72600b54610d6d600b54612012565b6121bf565b600b6000815480929190610d8590613712565b91905055508080610d9590613712565b915050610d48565b50600160088190555050505050565b610db4611a32565b73ffffffffffffffffffffffffffffffffffffffff16610dd2611354565b73ffffffffffffffffffffffffffffffffffffffff1614610e28576040517f08c379a0000000000000000000000000000000000000000000000000000000008152600401610e1f906132f8565b60405180910390fd5b60004790503373ffffffffffffffffffffffffffffffffffffffff166108fc829081150290604051600060405180830381858888f19350505050158015610e73573d6000803e3d6000fd5b5050565b610e92838383604051806020016040528060008152506116f2565b505050565b610e9f611a32565b73ffffffffffffffffffffffffffffffffffffffff16610ebd611354565b73ffffffffffffffffffffffffffffffffffffffff1614610f13576040517f08c379a0000000000000000000000000000000000000000000000000000000008152600401610f0a906132f8565b60405180910390fd5b60008173ffffffffffffffffffffffffffffffffffffffff166370a08231306040518263ffffffff1660e01b8152600401610f4e919061304b565b60206040518083038186803b158015610f6657600080fd5b505afa158015610f7a573d6000803e3d6000fd5b505050506040513d601f19601f82011682018060405250810190610f9e9190612b7f565b90508173ffffffffffffffffffffffffffffffffffffffff1663a9059cbb33836040518363ffffffff1660e01b8152600401610fdb9291906130b2565b602060405180830381600087803b158015610ff557600080fd5b505af1158015611009573d6000803e3d6000fd5b505050506040513d601f19601f8201168201806040525081019061102d9190612a71565b505050565b61103a611a32565b73ffffffffffffffffffffffffffffffffffffffff16611058611354565b73ffffffffffffffffffffffffffffffffffffffff16146110ae576040517f08c379a00000000000000000000000000000000000000000000000000000000081526004016110a5906132f8565b60405180910390fd5b80600990805190602001906110c4929190612686565b5050565b6000806002600084815260200190815260200160002060009054906101000a900473ffffffffffffffffffffffffffffffffffffffff169050600073ffffffffffffffffffffffffffffffffffffffff168173ffffffffffffffffffffffffffffffffffffffff161415611171576040517f08c379a000000000000000000000000000000000000000000000000000000000815260040161116890613278565b60405180910390fd5b80915050919050565b60098054611187906136af565b80601f01602080910402602001604051908101604052809291908181526020018280546111b3906136af565b80156112005780601f106111d557610100808354040283529160200191611200565b820191906000526020600020905b8154815290600101906020018083116111e357829003601f168201915b505050505081565b60008073ffffffffffffffffffffffffffffffffffffffff168273ffffffffffffffffffffffffffffffffffffffff161415611279576040517f08c379a000000000000000000000000000000000000000000000000000000000815260040161127090613258565b60405180910390fd5b600360008373ffffffffffffffffffffffffffffffffffffffff1673ffffffffffffffffffffffffffffffffffffffff168152602001908152602001600020549050919050565b6112c8611a32565b73ffffffffffffffffffffffffffffffffffffffff166112e6611354565b73ffffffffffffffffffffffffffffffffffffffff161461133c576040517f08c379a0000000000000000000000000000000000000000000000000000000008152600401611333906132f8565b60405180910390fd5b6113466000612233565b565b600c5481565b600a5481565b6000600760009054906101000a900473ffffffffffffffffffffffffffffffffffffffff16905090565b60606001805461138d906136af565b80601f01602080910402602001604051908101604052809291908181526020018280546113b9906136af565b80156114065780601f106113db57610100808354040283529160200191611406565b820191906000526020600020905b8154815290600101906020018083116113e957829003601f168201915b5050505050905090565b600e60019054906101000a900473ffffffffffffffffffffffffffffffffffffffff1673ffffffffffffffffffffffffffffffffffffffff163373ffffffffffffffffffffffffffffffffffffffff1614806114b95750600f60009054906101000a900473ffffffffffffffffffffffffffffffffffffffff1673ffffffffffffffffffffffffffffffffffffffff163373ffffffffffffffffffffffffffffffffffffffff16145b806115115750601160009054906101000a900473ffffffffffffffffffffffffffffffffffffffff1673ffffffffffffffffffffffffffffffffffffffff163373ffffffffffffffffffffffffffffffffffffffff16145b611550576040517f08c379a0000000000000000000000000000000000000000000000000000000008152600401611547906133b8565b60405180910390fd5b600060024761155f9190613528565b905060006004476115709190613528565b905060006004476115819190613528565b9050601060009054906101000a900473ffffffffffffffffffffffffffffffffffffffff1673ffffffffffffffffffffffffffffffffffffffff166108fc849081150290604051600060405180830381858888f193505050501580156115eb573d6000803e3d6000fd5b50600e60019054906101000a900473ffffffffffffffffffffffffffffffffffffffff1673ffffffffffffffffffffffffffffffffffffffff166108fc839081150290604051600060405180830381858888f19350505050158015611654573d6000803e3d6000fd5b50600f60009054906101000a900473ffffffffffffffffffffffffffffffffffffffff1673ffffffffffffffffffffffffffffffffffffffff166108fc829081150290604051600060405180830381858888f193505050501580156116bd573d6000803e3d6000fd5b50505050565b6116d56116ce611a32565b83836122f9565b5050565b600d5481565b600e60009054906101000a900460ff1681565b6117036116fd611a32565b83611af3565b611742576040517f08c379a000000000000000000000000000000000000000000000000000000000815260040161173990613338565b60405180910390fd5b61174e84848484612466565b50505050565b606061175f826119c6565b61179e576040517f08c379a000000000000000000000000000000000000000000000000000000000815260040161179590613358565b60405180910390fd5b60096117a983612012565b6040516020016117ba92919061301c565b6040516020818303038152906040529050919050565b6000600560008473ffffffffffffffffffffffffffffffffffffffff1673ffffffffffffffffffffffffffffffffffffffff16815260200190815260200160002060008373ffffffffffffffffffffffffffffffffffffffff1673ffffffffffffffffffffffffffffffffffffffff16815260200190815260200160002060009054906101000a900460ff16905092915050565b61186c611a32565b73ffffffffffffffffffffffffffffffffffffffff1661188a611354565b73ffffffffffffffffffffffffffffffffffffffff16146118e0576040517f08c379a00000000000000000000000000000000000000000000000000000000081526004016118d7906132f8565b60405180910390fd5b600073ffffffffffffffffffffffffffffffffffffffff168173ffffffffffffffffffffffffffffffffffffffff161415611950576040517f08c379a000000000000000000000000000000000000000000000000000000000815260040161194790613138565b60405180910390fd5b61195981612233565b50565b60007f01ffc9a7000000000000000000000000000000000000000000000000000000007bffffffffffffffffffffffffffffffffffffffffffffffffffffffff1916827bffffffffffffffffffffffffffffffffffffffffffffffffffffffff1916149050919050565b60008073ffffffffffffffffffffffffffffffffffffffff166002600084815260200190815260200160002060009054906101000a900473ffffffffffffffffffffffffffffffffffffffff1673ffffffffffffffffffffffffffffffffffffffff1614159050919050565b600033905090565b816004600083815260200190815260200160002060006101000a81548173ffffffffffffffffffffffffffffffffffffffff021916908373ffffffffffffffffffffffffffffffffffffffff160217905550808273ffffffffffffffffffffffffffffffffffffffff16611aad836110c8565b73ffffffffffffffffffffffffffffffffffffffff167f8c5be1e5ebec7d5bd14f71427d1e84f3dd0314c0f7b2291e5b200ac8c7c3b92560405160405180910390a45050565b6000611afe826119c6565b611b3d576040517f08c379a0000000000000000000000000000000000000000000000000000000008152600401611b34906131d8565b60405180910390fd5b6000611b48836110c8565b90508073ffffffffffffffffffffffffffffffffffffffff168473ffffffffffffffffffffffffffffffffffffffff161480611bb757508373ffffffffffffffffffffffffffffffffffffffff16611b9f8461085b565b73ffffffffffffffffffffffffffffffffffffffff16145b80611bc85750611bc781856117d0565b5b91505092915050565b8273ffffffffffffffffffffffffffffffffffffffff16611bf1826110c8565b73ffffffffffffffffffffffffffffffffffffffff1614611c47576040517f08c379a0000000000000000000000000000000000000000000000000000000008152600401611c3e90613158565b60405180910390fd5b600073ffffffffffffffffffffffffffffffffffffffff168273ffffffffffffffffffffffffffffffffffffffff161415611cb7576040517f08c379a0000000000000000000000000000000000000000000000000000000008152600401611cae90613198565b60405180910390fd5b611cc28383836124c2565b611ccd600082611a3a565b6001600360008573ffffffffffffffffffffffffffffffffffffffff1673ffffffffffffffffffffffffffffffffffffffff1681526020019081526020016000206000828254611d1d91906135b3565b925050819055506001600360008473ffffffffffffffffffffffffffffffffffffffff1673ffffffffffffffffffffffffffffffffffffffff1681526020019081526020016000206000828254611d7491906134d2565b92505081905550816002600083815260200190815260200160002060006101000a81548173ffffffffffffffffffffffffffffffffffffffff021916908373ffffffffffffffffffffffffffffffffffffffff160217905550808273ffffffffffffffffffffffffffffffffffffffff168473ffffffffffffffffffffffffffffffffffffffff167fddf252ad1be2c89b69c2b068fc378daa952ba7f163c4a11628f55a4df523b3ef60405160405180910390a4611e338383836124c7565b505050565b600073ffffffffffffffffffffffffffffffffffffffff168273ffffffffffffffffffffffffffffffffffffffff161415611ea8576040517f08c379a0000000000000000000000000000000000000000000000000000000008152600401611e9f906132b8565b60405180910390fd5b611eb1816119c6565b15611ef1576040517f08c379a0000000000000000000000000000000000000000000000000000000008152600401611ee890613178565b60405180910390fd5b611efd600083836124c2565b6001600360008473ffffffffffffffffffffffffffffffffffffffff1673ffffffffffffffffffffffffffffffffffffffff1681526020019081526020016000206000828254611f4d91906134d2565b92505081905550816002600083815260200190815260200160002060006101000a81548173ffffffffffffffffffffffffffffffffffffffff021916908373ffffffffffffffffffffffffffffffffffffffff160217905550808273ffffffffffffffffffffffffffffffffffffffff16600073ffffffffffffffffffffffffffffffffffffffff167fddf252ad1be2c89b69c2b068fc378daa952ba7f163c4a11628f55a4df523b3ef60405160405180910390a461200e600083836124c7565b5050565b6060600082141561205a576040518060400160405280600181526020017f300000000000000000000000000000000000000000000000000000000000000081525090506121ba565b600082905060005b6000821461208c57808061207590613712565b915050600a826120859190613528565b9150612062565b60008167ffffffffffffffff8111156120ce577f4e487b7100000000000000000000000000000000000000000000000000000000600052604160045260246000fd5b6040519080825280601f01601f1916602001820160405280156121005781602001600182028036833780820191505090505b5090505b600085146121b35760018261211991906135b3565b9150600a85612128919061375b565b603061213491906134d2565b60f81b818381518110612170577f4e487b7100000000000000000000000000000000000000000000000000000000600052603260045260246000fd5b60200101907effffffffffffffffffffffffffffffffffffffffffffffffffffffffffffff1916908160001a905350600a856121ac9190613528565b9450612104565b8093505050505b919050565b6121c8826119c6565b612207576040517f08c379a00000000000000000000000000000000000000000000000000000000081526004016121fe90613298565b60405180910390fd5b8060066000848152602001908152602001600020908051906020019061222e929190612686565b505050565b6000600760009054906101000a900473ffffffffffffffffffffffffffffffffffffffff16905081600760006101000a81548173ffffffffffffffffffffffffffffffffffffffff021916908373ffffffffffffffffffffffffffffffffffffffff1602179055508173ffffffffffffffffffffffffffffffffffffffff168173ffffffffffffffffffffffffffffffffffffffff167f8be0079c531659141344cd1fd0a4f28419497f9722a3daafe3b4186f6b6457e060405160405180910390a35050565b8173ffffffffffffffffffffffffffffffffffffffff168373ffffffffffffffffffffffffffffffffffffffff161415612368576040517f08c379a000000000000000000000000000000000000000000000000000000000815260040161235f906131b8565b60405180910390fd5b80600560008573ffffffffffffffffffffffffffffffffffffffff1673ffffffffffffffffffffffffffffffffffffffff16815260200190815260200160002060008473ffffffffffffffffffffffffffffffffffffffff1673ffffffffffffffffffffffffffffffffffffffff16815260200190815260200160002060006101000a81548160ff0219169083151502179055508173ffffffffffffffffffffffffffffffffffffffff168373ffffffffffffffffffffffffffffffffffffffff167f17307eab39ab6107e8899845ad3d59bd9653f200f220920489ca2b5937696c318360405161245991906130db565b60405180910390a3505050565b612471848484611bd1565b61247d848484846124cc565b6124bc576040517f08c379a00000000000000000000000000000000000000000000000000000000081526004016124b390613118565b60405180910390fd5b50505050565b505050565b505050565b60006124ed8473ffffffffffffffffffffffffffffffffffffffff16612663565b15612656578373ffffffffffffffffffffffffffffffffffffffff1663150b7a02612516611a32565b8786866040518563ffffffff1660e01b81526004016125389493929190613066565b602060405180830381600087803b15801561255257600080fd5b505af192505050801561258357506040513d601f19601f820116820180604052508101906125809190612ac3565b60015b612606573d80600081146125b3576040519150601f19603f3d011682016040523d82523d6000602084013e6125b8565b606091505b506000815114156125fe576040517f08c379a00000000000000000000000000000000000000000000000000000000081526004016125f590613118565b60405180910390fd5b805181602001fd5b63150b7a0260e01b7bffffffffffffffffffffffffffffffffffffffffffffffffffffffff1916817bffffffffffffffffffffffffffffffffffffffffffffffffffffffff19161491505061265b565b600190505b949350505050565b6000808273ffffffffffffffffffffffffffffffffffffffff163b119050919050565b828054612692906136af565b90600052602060002090601f0160209004810192826126b457600085556126fb565b82601f106126cd57805160ff19168380011785556126fb565b828001600101855582156126fb579182015b828111156126fa5782518255916020019190600101906126df565b5b509050612708919061270c565b5090565b5b8082111561272557600081600090555060010161270d565b5090565b600061273c61273784613418565b6133f3565b90508281526020810184848401111561275457600080fd5b61275f84828561366d565b509392505050565b600061277a61277584613449565b6133f3565b90508281526020810184848401111561279257600080fd5b61279d84828561366d565b509392505050565b6000813590506127b481613e8e565b92915050565b6000813590506127c981613ea5565b92915050565b6000815190506127de81613ea5565b92915050565b6000813590506127f381613ebc565b92915050565b60008151905061280881613ebc565b92915050565b600082601f83011261281f57600080fd5b813561282f848260208601612729565b91505092915050565b60008135905061284781613ed3565b92915050565b600082601f83011261285e57600080fd5b813561286e848260208601612767565b91505092915050565b60008135905061288681613eea565b92915050565b60008151905061289b81613eea565b92915050565b6000602082840312156128b357600080fd5b60006128c1848285016127a5565b91505092915050565b600080604083850312156128dd57600080fd5b60006128eb858286016127a5565b92505060206128fc858286016127a5565b9150509250929050565b60008060006060848603121561291b57600080fd5b6000612929868287016127a5565b935050602061293a868287016127a5565b925050604061294b86828701612877565b9150509250925092565b6000806000806080858703121561296b57600080fd5b6000612979878288016127a5565b945050602061298a878288016127a5565b935050604061299b87828801612877565b925050606085013567ffffffffffffffff8111156129b857600080fd5b6129c48782880161280e565b91505092959194509250565b600080604083850312156129e357600080fd5b60006129f1858286016127a5565b9250506020612a02858286016127ba565b9150509250929050565b60008060408385031215612a1f57600080fd5b6000612a2d858286016127a5565b9250506020612a3e85828601612877565b9150509250929050565b600060208284031215612a5a57600080fd5b6000612a68848285016127ba565b91505092915050565b600060208284031215612a8357600080fd5b6000612a91848285016127cf565b91505092915050565b600060208284031215612aac57600080fd5b6000612aba848285016127e4565b91505092915050565b600060208284031215612ad557600080fd5b6000612ae3848285016127f9565b91505092915050565b600060208284031215612afe57600080fd5b6000612b0c84828501612838565b91505092915050565b600060208284031215612b2757600080fd5b600082013567ffffffffffffffff811115612b4157600080fd5b612b4d8482850161284d565b91505092915050565b600060208284031215612b6857600080fd5b6000612b7684828501612877565b91505092915050565b600060208284031215612b9157600080fd5b6000612b9f8482850161288c565b91505092915050565b612bb1816135e7565b82525050565b612bc0816135f9565b82525050565b6000612bd18261348f565b612bdb81856134a5565b9350612beb81856020860161367c565b612bf481613848565b840191505092915050565b6000612c0a8261349a565b612c1481856134b6565b9350612c2481856020860161367c565b612c2d81613848565b840191505092915050565b6000612c438261349a565b612c4d81856134c7565b9350612c5d81856020860161367c565b80840191505092915050565b60008154612c76816136af565b612c8081866134c7565b94506001821660008114612c9b5760018114612cac57612cdf565b60ff19831686528186019350612cdf565b612cb58561347a565b60005b83811015612cd757815481890152600182019150602081019050612cb8565b838801955050505b50505092915050565b6000612cf56032836134b6565b9150612d0082613859565b604082019050919050565b6000612d186026836134b6565b9150612d23826138a8565b604082019050919050565b6000612d3b6025836134b6565b9150612d46826138f7565b604082019050919050565b6000612d5e601c836134b6565b9150612d6982613946565b602082019050919050565b6000612d816024836134b6565b9150612d8c8261396f565b604082019050919050565b6000612da46019836134b6565b9150612daf826139be565b602082019050919050565b6000612dc7602c836134b6565b9150612dd2826139e7565b604082019050919050565b6000612dea6038836134b6565b9150612df582613a36565b604082019050919050565b6000612e0d6042836134b6565b9150612e1882613a85565b606082019050919050565b6000612e306023836134b6565b9150612e3b82613afa565b604082019050919050565b6000612e53602a836134b6565b9150612e5e82613b49565b604082019050919050565b6000612e766029836134b6565b9150612e8182613b98565b604082019050919050565b6000612e99602e836134b6565b9150612ea482613be7565b604082019050919050565b6000612ebc6020836134b6565b9150612ec782613c36565b602082019050919050565b6000612edf602c836134b6565b9150612eea82613c5f565b604082019050919050565b6000612f026005836134c7565b9150612f0d82613cae565b600582019050919050565b6000612f256020836134b6565b9150612f3082613cd7565b602082019050919050565b6000612f486021836134b6565b9150612f5382613d00565b604082019050919050565b6000612f6b6031836134b6565b9150612f7682613d4f565b604082019050919050565b6000612f8e601c836134b6565b9150612f9982613d9e565b602082019050919050565b6000612fb1602b836134b6565b9150612fbc82613dc7565b604082019050919050565b6000612fd4601f836134b6565b9150612fdf82613e16565b602082019050919050565b6000612ff7602d836134b6565b915061300282613e3f565b604082019050919050565b61301681613663565b82525050565b60006130288285612c69565b91506130348284612c38565b915061303f82612ef5565b91508190509392505050565b60006020820190506130606000830184612ba8565b92915050565b600060808201905061307b6000830187612ba8565b6130886020830186612ba8565b613095604083018561300d565b81810360608301526130a78184612bc6565b905095945050505050565b60006040820190506130c76000830185612ba8565b6130d4602083018461300d565b9392505050565b60006020820190506130f06000830184612bb7565b92915050565b600060208201905081810360008301526131108184612bff565b905092915050565b6000602082019050818103600083015261313181612ce8565b9050919050565b6000602082019050818103600083015261315181612d0b565b9050919050565b6000602082019050818103600083015261317181612d2e565b9050919050565b6000602082019050818103600083015261319181612d51565b9050919050565b600060208201905081810360008301526131b181612d74565b9050919050565b600060208201905081810360008301526131d181612d97565b9050919050565b600060208201905081810360008301526131f181612dba565b9050919050565b6000602082019050818103600083015261321181612ddd565b9050919050565b6000602082019050818103600083015261323181612e00565b9050919050565b6000602082019050818103600083015261325181612e23565b9050919050565b6000602082019050818103600083015261327181612e46565b9050919050565b6000602082019050818103600083015261329181612e69565b9050919050565b600060208201905081810360008301526132b181612e8c565b9050919050565b600060208201905081810360008301526132d181612eaf565b9050919050565b600060208201905081810360008301526132f181612ed2565b9050919050565b6000602082019050818103600083015261331181612f18565b9050919050565b6000602082019050818103600083015261333181612f3b565b9050919050565b6000602082019050818103600083015261335181612f5e565b9050919050565b6000602082019050818103600083015261337181612f81565b9050919050565b6000602082019050818103600083015261339181612fa4565b9050919050565b600060208201905081810360008301526133b181612fc7565b9050919050565b600060208201905081810360008301526133d181612fea565b9050919050565b60006020820190506133ed600083018461300d565b92915050565b60006133fd61340e565b905061340982826136e1565b919050565b6000604051905090565b600067ffffffffffffffff82111561343357613432613819565b5b61343c82613848565b9050602081019050919050565b600067ffffffffffffffff82111561346457613463613819565b5b61346d82613848565b9050602081019050919050565b60008190508160005260206000209050919050565b600081519050919050565b600081519050919050565b600082825260208201905092915050565b600082825260208201905092915050565b600081905092915050565b60006134dd82613663565b91506134e883613663565b9250827fffffffffffffffffffffffffffffffffffffffffffffffffffffffffffffffff0382111561351d5761351c61378c565b5b828201905092915050565b600061353382613663565b915061353e83613663565b92508261354e5761354d6137bb565b5b828204905092915050565b600061356482613663565b915061356f83613663565b9250817fffffffffffffffffffffffffffffffffffffffffffffffffffffffffffffffff04831182151516156135a8576135a761378c565b5b828202905092915050565b60006135be82613663565b91506135c983613663565b9250828210156135dc576135db61378c565b5b828203905092915050565b60006135f282613643565b9050919050565b60008115159050919050565b60007fffffffff0000000000000000000000000000000000000000000000000000000082169050919050565b600061363c826135e7565b9050919050565b600073ffffffffffffffffffffffffffffffffffffffff82169050919050565b6000819050919050565b82818337600083830152505050565b60005b8381101561369a57808201518184015260208101905061367f565b838111156136a9576000848401525b50505050565b600060028204905060018216806136c757607f821691505b602082108114156136db576136da6137ea565b5b50919050565b6136ea82613848565b810181811067ffffffffffffffff8211171561370957613708613819565b5b80604052505050565b600061371d82613663565b91507fffffffffffffffffffffffffffffffffffffffffffffffffffffffffffffffff8214156137505761374f61378c565b5b600182019050919050565b600061376682613663565b915061377183613663565b925082613781576137806137bb565b5b828206905092915050565b7f4e487b7100000000000000000000000000000000000000000000000000000000600052601160045260246000fd5b7f4e487b7100000000000000000000000000000000000000000000000000000000600052601260045260246000fd5b7f4e487b7100000000000000000000000000000000000000000000000000000000600052602260045260246000fd5b7f4e487b7100000000000000000000000000000000000000000000000000000000600052604160045260246000fd5b6000601f19601f8301169050919050565b7f4552433732313a207472616e7366657220746f206e6f6e20455243373231526560008201527f63656976657220696d706c656d656e7465720000000000000000000000000000602082015250565b7f4f776e61626c653a206e6577206f776e657220697320746865207a65726f206160008201527f6464726573730000000000000000000000000000000000000000000000000000602082015250565b7f4552433732313a207472616e736665722066726f6d20696e636f72726563742060008201527f6f776e6572000000000000000000000000000000000000000000000000000000602082015250565b7f4552433732313a20746f6b656e20616c7265616479206d696e74656400000000600082015250565b7f4552433732313a207472616e7366657220746f20746865207a65726f2061646460008201527f7265737300000000000000000000000000000000000000000000000000000000602082015250565b7f4552433732313a20617070726f766520746f2063616c6c657200000000000000600082015250565b7f4552433732313a206f70657261746f7220717565727920666f72206e6f6e657860008201527f697374656e7420746f6b656e0000000000000000000000000000000000000000602082015250565b7f4552433732313a20617070726f76652063616c6c6572206973206e6f74206f7760008201527f6e6572206e6f7220617070726f76656420666f7220616c6c0000000000000000602082015250565b7f4572726f723a20596f7520617265206e6f7420616c6c6f77656420746f206d6960008201527f6e7420756e74696c20746865206f776e657220737461727473204d696e74696e60208201527f6721000000000000000000000000000000000000000000000000000000000000604082015250565b7f4572726f723a2053656e74204554482076616c756520697320494e434f52524560008201527f4354210000000000000000000000000000000000000000000000000000000000602082015250565b7f4552433732313a2062616c616e636520717565727920666f7220746865207a6560008201527f726f206164647265737300000000000000000000000000000000000000000000602082015250565b7f4552433732313a206f776e657220717565727920666f72206e6f6e657869737460008201527f656e7420746f6b656e0000000000000000000000000000000000000000000000602082015250565b7f45524337323155524953746f726167653a2055524920736574206f66206e6f6e60008201527f6578697374656e7420746f6b656e000000000000000000000000000000000000602082015250565b7f4552433732313a206d696e7420746f20746865207a65726f2061646472657373600082015250565b7f4552433732313a20617070726f76656420717565727920666f72206e6f6e657860008201527f697374656e7420746f6b656e0000000000000000000000000000000000000000602082015250565b7f2e6a736f6e000000000000000000000000000000000000000000000000000000600082015250565b7f4f776e61626c653a2063616c6c6572206973206e6f7420746865206f776e6572600082015250565b7f4552433732313a20617070726f76616c20746f2063757272656e74206f776e6560008201527f7200000000000000000000000000000000000000000000000000000000000000602082015250565b7f4552433732313a207472616e736665722063616c6c6572206973206e6f74206f60008201527f776e6572206e6f7220617070726f766564000000000000000000000000000000602082015250565b7f4572726f723a20546f6b656e20646f6573206e6f742065786973742100000000600082015250565b7f4572726f723a204e6f7420656e6f75676820746f6b656e732072656d61696e6960008201527f6e6720746f206d696e7421000000000000000000000000000000000000000000602082015250565b7f5265656e7472616e637947756172643a207265656e7472616e742063616c6c00600082015250565b7f4552523a20596f7520617265206e6f74206120636f727265637420636f6d6d7560008201527f6e697479206d656d656265722100000000000000000000000000000000000000602082015250565b613e97816135e7565b8114613ea257600080fd5b50565b613eae816135f9565b8114613eb957600080fd5b50565b613ec581613605565b8114613ed057600080fd5b50565b613edc81613631565b8114613ee757600080fd5b50565b613ef381613663565b8114613efe57600080fd5b5056fea2646970667358221220b0370279ed8b5f3d84ff59eab96e5848225692147bcc918ab756275e5a8d2ad864736f6c63430008040033",
  "linkReferences": {},
  "deployedLinkReferences": {}
}